:020000040800F2
:1000000028080020B5010008B5330008712E00084B
:10001000B1330008750300089D3600080000000099
:10002000000000000000000000000000DD340008B7
:10003000B105000800000000B93300088936000847
:10004000CF010008CF010008CF010008CF01000850
:10005000CF010008CF010008CF010008CF01000840
:10006000CF010008CF010008CF010008CF01000830
:10007000CF010008CF010008CF010008CF01000820
:10008000CF010008CF010008CF010008CF01000810
:10009000CF010008CF010008CF010008CF01000800
:1000A000CF01000891360008CF010008CF010008F9
:1000B000CF010008CF010008CF010008CF010008E0
:1000C000CF010008CF010008CF010008CF010008D0
:1000D000CF010008CF010008CF010008CF010008C0
:1000E000CF010008CF010008CF01000800F002F89E
:1000F00000F050F814A696E8000CB244B344DA4578
:1001000001D100F047F8BAE80F000FA696E83000DA
:10011000A5EB040504EB0607AAEB0704A7F101070A
:100120004FEA15154FEA3414A4F10104AC4201D38F
:1001300000F030F813F0010F18BFFB1A43F0010371
:1001400000F001F8DBE718470846000028460000E9
:10015000103A24BF78C878C1FAD8520724BF30C8F3
:1001600030C144BF04680C60704700007047000055
:100170000023002400250026103A28BF78C1FBD8B0
:10018000520728BF30C148BF0B6070471FB51FBD65
:1001900010B510BD00F031F81146FFF7F7FF03F07E
:1001A0007FFA00F04FF803B4FFF7F2FF03BC00F052
:1001B00057F800000948804709480047FEE7FEE776
:1001C000FEE7FEE7FEE7FEE7FEE7FEE7FEE7FEE707
:1001D00004480549054A064B704700008D36000863
:1001E000ED00000828020020280800202804002034
:1001F00028040020704770477047754600F02CF8BF
:10020000AE4605006946534620F00700854618B003
:1002100020B5FFF7DDFFBDE820404FF000064FF0AE
:1002200000074FF000084FF0000BAC46ACE8C009E7
:10023000ACE8C009ACE8C009ACE8C00921F007018E
:100240008D46704710B50446AFF300802046BDE8E8
:100250001040FFF7A8BF00000048704718000020BA
:1002600001491820ABBEFEE72600020070470000DF
:10027000B0B5044600688168C90709D0816821F0DB
:100280000101816000F066FF21688968C90701D11A
:100290000020B0BD054602E08068C007F8D000F03D
:1002A00059FF411B20680329F6D38168C907F3D0A1
:1002B000A06A40F01000A062E06A40F00100E06235
:1002C0000120B0BDB0B582B0044600200190216885
:1002D0008A68D2074BD1886840F00100886040F2FC
:1002E0001400C2F2000000684DF68361C4F21B31B5
:1002F000A0FB0101880C01900198A0B10198013880
:100300000190019878B1019801380190019850B19D
:10031000019801380190019828B1019801380190A5
:1003200001980028EAD100F015FF21688968C90703
:100330001CD1054603E000BF8068C00716D100F05D
:1003400009FF411B20680329F6D38168C907F3D14F
:10035000A06A40F01000A062E06A40F00100E06294
:10036000002084F82400012002B0B0BD002002B0BB
:10037000B0BD0000FEE7000010B588B000244FF4C7
:100380000060CDE90044079406900594CDE903444C
:10039000029002F099FD002842D002F0C3FE00282E
:1003A00042D001AA2020232102F0CCFF6A4624205B
:1003B000272102F0C7FF07AA0020032102F0C2FF95
:1003C00006AA0420072102F0BDFF05AA08200B2180
:1003D00002F0B8FF04AA1020132102F0B3FF03AA11
:1003E0001420172102F0AEFF02AA18201B2102F0F0
:1003F000A9FF6020042102F071FF7020012102F0AA
:100400006DFF2A20012102F069FF2920B12102F0AD
:1004100065FF2820852102F061FF02F0F1FE04460D
:10042000204608B010BD00BF0024204608B010BD13
:10043000B0B584B0044602F01DFD402802D2002071
:1004400004B0B0BD41061DD441B2B1F1FF3F1DDD86
:1004500000F01800102825D19DF804209DF8031005
:100460001C2302F0030503EAD20242EA41119DF87F
:1004700005C029449DF80600090441EA0C21022226
:1004800017E000BF0546902002E000BF054694201B
:100490000DF103010D2202F0B3FD284600F0180013
:1004A0001028D9D09DF803009DF80420C100500900
:1004B00001220843DDF807102270DDF80B20C4E9A3
:1004C00001019DF80F00E2602074012004B0B0BD6E
:1004D00070B540F278040546C2F2000400202060A6
:1004E00002F0B6FD4107207110D42878696802280F
:1004F00020D1E023C1F3014003EA513318440A0A32
:1005000000F1080C4B0D8126402041E0C10619D4B2
:100510002878696802282BD1E023C1F3014003EA5F
:10052000513318440A0A00F1080C4B0D8226422070
:100530002EE000BF4FEA411CC1F3D70381264020C3
:1005400024E000BF400644BF002070BD28786968E1
:10055000022815D1E023C1F3014003EA51331844C6
:100560000A0A00F1080C4B0D8426442010E000BF5D
:100570004FEA411CC1F3D7038226422006E000BFA8
:100580004FEA411CC1F3D7038426442000210022F6
:10059000A2702A7AE170237005F10903214684F8DC
:1005A00001C002F0F3FC304602F07CFD012070BD7A
:1005B000704700002DE9F04F81B021F00048009015
:1005C00040460E4603F014FD40F28009C2F20009D5
:1005D0000446D9E9030B8A4603F00AFD46F2666336
:1005E000C3F6EE734FF0663203F016FB49F69A122B
:1005F00049F6991305460F46C9F69912C3F6A97331
:100600002046514603F008FB2A463B4603F05CFABD
:1006100003F028FA0446C9F80C005846314603F0A6
:1006200083FD002814BFC9F810602BF00048009F1C
:100630004046394603F0A0FDC9F8140038460021B1
:10064000002503F063FD38B1C9E90455C9E9065531
:10065000C9F82050A9F800503846002103F056FD93
:1006600088B9D9F8180003F0C3FC41F27B4247F681
:10067000E123C4F2AE72C3F6847303F025FA03F0EB
:10068000F1F9C9F81800D9F83000314603F00AFF33
:10069000002103F050FD99F80050002808BF002DFC
:1006A0000ED1D9F834000021C4F2A00103F04AFDB4
:1006B00030B9D9F818000125C9F81C0089F8005094
:1006C00020464FF07E5103F02FFD002808BF012D7A
:1006D00002D001B0BDE8F08F99F801000028F8D1F0
:1006E000D9F81800C9F82000012089F8010001B0EC
:1006F000BDE8F08F70B582B004460020019094F8F8
:100700002400012802D1022002B070BD012084F82B
:1007100024002046FFF7ACFD2046FFF7D3FD28B1AB
:10072000002184F8241002B070BD00BF0646A06A04
:1007300041F2021188430230A06240F21400C2F27A
:1007400000000568022000F0C1FDB5FBF0F040009C
:1007500001900198A8B100BF01980138019001985B
:1007600078B1019801380190019850B10198013891
:100770000190019828B10198013801900198002852
:10078000EAD12068816841F00801816000F0E2FC54
:1007900021688A6812070FD4886840F004008860D6
:1007A00000F0D8FC21688968490715D401216FF051
:1007B0000302304622E000BF054602E088680007D9
:1007C000EAD500F0C7FC401B21680B28F6D38868E7
:1007D0000007F3D50EE000BF054602E08068400741
:1007E000E4D500F0B7FC411B20680B29F6D38168E3
:1007F0004907F3D5012010216FF01202A36A1A40B5
:100800001143A162002184F8241002B070BD0000E1
:1008100010B581B00022009290F82420012A03D163
:100820000221084601B010BD4B680122062B80F85A
:10083000242033D8D0F800C003EB83035A1F1F23B2
:10084000DCF834E003FA02F40B682EEA040403FA3D
:1008500002F22243CCF83420092B03EB430249D99E
:10086000DCF80CE01E3A0724896894402EEA040460
:10087000914023F001022143102ACCF80C1043D1FF
:1008800042F20841C4F20101A1F10802944543D0AB
:10089000816A41F020018162012136E0D0F800C078
:1008A0000C2B03EB830213D8233A1F23DCF830E030
:1008B00003FA02F40B682EEA040403FA02F222435C
:1008C000CCF83020092B03EB4302C9D812E000BF5B
:1008D000413A1F23DCF82CE003FA02F40B682EEAFD
:1008E000040403FA02F22243CCF82C20092B03EB78
:1008F0004302B5D8DCF81030072489689440A3433C
:1009000091401943CCF810100021002280F82420D7
:10091000084601B010BD00BF0A681202F4D40A688C
:10092000102B42F400020A60EED140F21401C2F230
:10093000000109684DF68362C4F21B32A1FB02126A
:10094000910C01EB81014900009100990029DBD055
:1009500000990139009100990029D5D000990139F9
:10096000009100990029CFD0009901390091009998
:100970000029C9D0009901390091009900294FF050
:100980000001E5D1C1E700000068C06C70470000BD
:10099000002804BF01207047B0B50446806A28B122
:1009A00021688868C0070CD115E000BF0020E06214
:1009B00084F82400204600F097F821688868C00772
:1009C00009D0886820F00100886000F0C3FB21682E
:1009D0008A68D20726D1A06AC0063AD4A06A41F23A
:1009E000021290430230A062E069D4E9013240EA89
:1009F000030C531EB3FA83F35D091346B2F5807FEF
:100A000018BF2B02207D257B01284CEA45002CD104
:100A100035B3A56A45F02005A562E56A45F00105F4
:100A2000E56222E0054602E08868C007D3D000F006
:100A300091FB401B21680328F6D38868C007F3D0D8
:100A4000A06A40F01000A062E06A40F00100E0629D
:100A5000A06AA06A40F01000A0620120B0BD00BFF3
:100A6000A56903EB4533A3F5C0534D68B2F5807F0C
:100A700025F4694543EA05034B608B684FF2FD7529
:100A8000CFF6E17503EA050343EA00038B6001D06A
:100A9000012A07D122690023CFF6F07303EB02523B
:100AA00001E000BF0022CB6A23F470031A43CA623C
:100AB000896840F6FE62CFF61F721140814207D16D
:100AC0000020E062A16A012262F30101A162B0BDCF
:100AD000A06A40F0100020F00200A062E06A40F03E
:100AE0000100E0620120B0BD80B586B0014640F64D
:100AF0000000C4F20100096800F5E05291424FF095
:100B00000001CDE90411CDE9021101D006B080BD8C
:100B100041F21801C4F202010A6842F400720A604C
:100B20000A6802F400720192019A0A6842F0040213
:100B30000A60096801F004010191019907210291FD
:100B40000321039102A900F0F7F906B080BD00006F
:100B50002DE9F04182B000270D460446019700F0D0
:100B6000F9FA21688A68D20544D406464868C00567
:100B700003D4C86A10F4700F46D040F21400C2F2D9
:100B80000000076842F292480220C1F2492800F0B2
:100B90009DFB216844F624130A69B7FBF0F0C2F20A
:100BA00092431A4206D1CA6844F62413C0F2920353
:100BB0001A425BD00A6912EA080F07D1CA6842F2EA
:100BC0009243C0F249031A4200F0C0800A6949F218
:100BD0004923C0F224031A424FF0FC0254D1CF68DB
:100BE0001F4208BF5422019B02FB00F7BB4250D3B7
:100BF000C3E000BFA06A40F02000A06284F8247027
:100C0000012002B0BDE8F0810868800700F1B580DE
:100C1000681C00F0A880FDB90868800770D50868D6
:100C2000800700F1AA800868800769D508688007F6
:100C300000F1A3800868800762D50868800700F18A
:100C40009C80086880075BD508688007E4D594E03D
:100C50000868800700F1918000F07CFA801B216811
:100C6000A842F5D908688007F2D449E00A6912EA77
:100C7000080F4FF0290207D1CB6842F29247C0F229
:100C800049073B4208BF1422019B02FB00F7BB420D
:100C900073D2681C52D05DBB0198B84230D3019822
:100CA000013001900198B84267D20198B84227D329
:100CB0000198013001900198B8425ED20198B84283
:100CC0001ED30198013001900198B84255D2019885
:100CD000B84215D30198013001900198B842DBD396
:100CE0004BE000BF0198013001900198B84235D225
:100CF00000F030FA801BA842F4D90198B842F1D232
:100D0000A06A40F00400A062002084F824000320C0
:100D100002B0BDE8F08100BF019801300190019858
:100D2000B8422AD20198013001900198B84224D2E9
:100D30000198013001900198B8421ED2019801300B
:100D400001900198B842E7D317E000BF5422019BFD
:100D500002FB00F7BB429CD30FE000BF21680CE010
:100D60000868800709D40868800706D408688007E7
:100D70005CBF08685FEA8070F2D56FF0120008600F
:100D8000A06A40F40070A062886800F46020B0F5AA
:100D9000602F01D1207B18B1002002B0BDE8F081A6
:100DA000A06A20F48070A062A06AC004F4D4A06A93
:100DB00040F00100A062002002B0BDE8F081000018
:100DC00010B5044690F82400012804BF022010BD8D
:100DD000012084F824002046FFF774FA20B1002097
:100DE00084F82400012010BD42F2044C2068A16A5E
:100DF000C4F2010C40F2013291430CF57F7201F50F
:100E000080719042A16229D0A16A21F48011A1626F
:100E10004168490504D5A16A012363F30D31A1623C
:100E2000A16A0023C9044FF0000144BFE16A21F028
:100E30000601E1626FF0020184F8243001608168EC
:100E400001F46021B1F5602F1BD1904214D081686C
:100E500041F4A0018160002010BD00BFDCF800104B
:100E600011F4702FD0D0A16A41F48011A162DCF896
:100E700000104905CFD4D3E7DCF8001011F4702F2F
:100E8000E5D0816841F480118160002010BD000030
:100E9000B0B5044690F82400012804BF0220B0BD7C
:100EA0000121206884F824108168C90709D081686D
:100EB00021F00101816000F04DF921688968C907BE
:100EC0000ED1214651F8280F41F2011220EA020208
:100ED000002042F001020A60002184F82410B0BD15
:100EE000054602E08068C007EBD000F033F9411BF3
:100EF00020680329F6D38168C907F3D0A06A214688
:100F000040F01000A06251F82C2F0120E1E7000012
:100F1000B0B5044600F01EF9054640F20C00C2F2DE
:100F200000000078611C18BF044400BF00F012F9F3
:100F3000401BA042FAD3B0BD2DE9F04F82B00E683D
:100F4000002E00F0FD8041F20042C4F201020423B1
:100F500040F2004E904208BF03234FF6FF7CC4F2DC
:100F6000010E009300240123C1F2100C4FF0000A7F
:100F70004FF000094BE000BF41F20002C4F2010251
:100F8000009F904208BF022704F00C030F229A40F2
:100F90002BEA020207FA03F34FEA9A051A4346F8CE
:100FA00025204E6840F20C45F202DEF8082054BFBE
:100FB00022EA080242EA0802C4F20105CEF808203B
:100FC0002A68B30254BF22EA080242EA08022A60F1
:100FD000B303DEF8042054BF22EA080242EA080202
:100FE000F303CEF80420DEF800204FF0010354BFD5
:100FF00022EA080242EA0802CEF800200E680AF14E
:10100000010A36FA0AF204F1040400F0998003FAA6
:101010000AFB16EA0B08F1D04E68664512DC122E68
:1010200056D8DFE806F0350B4D4955555555555501
:101030005555555555555545510000BFD1F80C90A3
:1010400046E000BF4FF6FF72C1F2210296420FDC6C
:101050000022C1F2110296421AD00022C1F21202FD
:10106000964215D00022C1F22102964210D02FE004
:101070000022C1F2220296420AD00022C1F23102BD
:10108000964205D00022C1F23202964220D100BF22
:101090008A684AB1012A14BFC0F814B0C0F810B071
:1010A0004FF0080914E000BF4FF0040910E000BF42
:1010B000CA6802F104090BE04FF0000908E000BF24
:1010C000CA6802F1080903E0CA6802F10C0900BF0E
:1010D00002462646B8F5807F24BF0432203E1768BA
:1010E0000F25B54027EA050509FA06F635431560D0
:1010F000CA79D2067FF582AF41F21803C4F2020327
:101100001A68AEF57E7642F001021A601A6802F0A3
:1011100001020192019A2AF0030256F802B040F649
:101120000002C4F20102904208D040F60042C4F22C
:10113000010290427FF420AF012725E7002723E733
:1011400002B0BDE8F08F0000002A08BF0904016169
:101150007047000040F22020C2F200000068704793
:1011600040F20C0040F22021C2F20000C2F2000165
:1011700000780A68104408607047000080B542F2A9
:101180000000C4F20200016841F010010160032078
:1011900000F08CF80F2000F005F800F027F8002090
:1011A00080BD000070B540F20C06C2F2000640F2AD
:1011B00014013278C2F200014FF47A730968B3FB6C
:1011C000F2F20446B1FBF2F1084601F06DF80F2C83
:1011D0004FF0010508D838B94FF0FF302146002202
:1011E000002500F037F87460284670BD82B041F2E7
:1011F0001800C4F202000168022241F001010160FE
:10120000016801F0010101910199416841F08051AB
:101210004160406800F08050009000980420C4F2C3
:101220000100016862F31A61016002B070470000BA
:10123000002848BF704700F01F01012202FA01F1A7
:101240001C2202EAD0004EF20012CEF200028150BF
:101250007047000010B54EF60C5CCEF2000CDCF8C6
:101260000030C3F3022E8EF00704042C28BF0424A0
:10127000BEF103034FF0FF3E0EFA04F438BF002323
:10128000A14399400EFA03F39A43114300F00F0271
:1012900000F160430901043A03F564436244002805
:1012A00048BF02F10C03197010BD00004EF60C513E
:1012B000CEF200010A684FF6FF031A4060F30A22DB
:1012C00042F0806040F0FD7008607047012821D036
:1012D00002280DD0102808D141F20401C4F2020105
:1012E0000A6851F8040CC00134D40020704700BFD4
:1012F00080B500F0C7F941F20401C4F202010968A7
:101300000222C1F3813102EB4101B0FBF1F0BDE8F3
:101310008040704741F20400C4F20200C16940F20B
:1013200002320A40B2F5817F04BF4FF4004070479B
:1013300001F44071B1F5407F18D0B1F5007F1CBFBA
:1013400000207047006A49F64041800701EAE070DA
:10135000704700BFC2F3834015A3185CD2030DD4BD
:1013600040F60012C0F23D02504313E050F8040C66
:101370004FF22441800301EAE07070470A6810A32D
:10138000C2F340429A5C41F20023C0F27A03B3FBFD
:10139000F2F250430968490248BF70474AF6AB2150
:1013A0004000CAF6AA21A0FB01014808704700BF0F
:1013B00002030405060708090A0B0C0D0E0F101096
:1013C000010200002DE9F04182B00446007841F2AC
:1013D0001C06C007C4F202064AD030685FEAC008A3
:1013E00008D4306840F080503060306800F08050A1
:1013F0000190019847F20007C4F200073868C00561
:1014000012D4386840F480703860FFF7A3FE0546B8
:101410003868C00508D4FFF79DFE401B6428F7D943
:10142000032002B0BDE8F081706810F4407012D063
:10143000616801F4407188420DD0706840F240420A
:10144000C4F24222012320F4407113600023C0073C
:101450001360716026D17068616820F440700843A1
:10146000B8F1000F706003D4306820F08050306015
:101470002068810707D556F8181CA26821F440415E
:10148000114346F8181CC00607D556F8180CE16839
:1014900020F48000084346F8180C002002B0BDE894
:1014A000F08100BFFFF756FE054641F2883700BFC6
:1014B00070688007CFD4FFF74DFE401BB8424FF055
:1014C0000300F5D9EAE70000002804BF01207047B7
:1014D0002DE9F04381B042F20008C4F2020804464C
:1014E000D8F800000D4600F0070088420CD2D8F86A
:1014F000000020F007002843C8F80000D8F80000DA
:1015000000F00700A8426CD1206841F2040981076D
:10151000C4F2020917D5410705D5D9F8001041F4E6
:10152000E061C9F80010010705D5D9F8001041F4B1
:101530006051C9F80010D9F80010A26821F0F0013C
:101540001143C9F80010C00742D1D8F8000000F0DC
:101550000700A8420CD9D8F8000020F00700284363
:10156000C8F80000D8F8000000F00700A84238D101
:101570002068410707D5D9F80010E26821F4E0613E
:101580001143C9F80010000708D5D9F800002169F7
:1015900020F4605040EAC100C9F80000D9F80020EA
:1015A00002F00C00082841F20020C0F27A004DD170
:1015B00044F24073C2F38341C0F60003595CD20386
:1015C00038D440F60010C0F23D0048433EE000BF72
:1015D000606859F8041C022808D0012826D1890324
:1015E00006D4012001B0BDE8F08300BF8901F8D521
:1015F000D9F8001021F003010843C9F80000FFF7F3
:10160000A9FD064641F28837D9F80000616800F06C
:101610000C00B0EB810F98D0FFF79CFD801BB84207
:10162000F2D9032001B0BDE8F08300BF8907D8D507
:10163000DEE700BFD9F8002044F23E73C2F3404217
:10164000C0F600039A5C4843B0FBF2F0D9F80010F2
:1016500044F22672C1F30311C0F60002515C40F25D
:10166000140220FA01F140F21000C2F200000068FA
:10167000C2F200021160FFF795FD002001B0BDE845
:10168000F083000040F2140041F20401C2F20000B5
:10169000C4F202010068096844F23672C1F3C22143
:1016A000C0F60002515CC84070470000002804BF2B
:1016B000012070472DE9F04182B00446007841F2E4
:1016C0000006C007C4F202060CD0706800F00C00DF
:1016D000042840F081803068800303D560680028CA
:1016E00000F04681207880071BD5706810F00C0F41
:1016F00009D0706800F00C00082840F087807068FE
:10170000C00300F183803068800703D52069012879
:1017100040F02E813068616920F0F80040EAC10095
:1017200030602078000713D4207840072CD4E56976
:10173000002D00F01881706800F00C00082840F0BF
:10174000A780012D40F00481012002B0BDE8F081A6
:10175000A069002800F084800020C4F2422001210A
:10176000C0F88014FFF7F6FC054600BF706A8007DA
:1017700000F1B280FFF7EEFC401B0228F6D90320EF
:1017800002B0BDE8F08100BFF0695FEAC00808D48C
:10179000F06940F08050F061F06900F080500090F6
:1017A000009847F20007C4F200073868C00549D422
:1017B000386840F480703860FFF7CCFC054600BF05
:1017C0003868C0053ED4FFF7C5FC401B6428F7D934
:1017D000032002B0BDE8F081706800F00C0008281A
:1017E00003D17068C0033FF576AF616830680029A7
:1017F00000F00C81B1F5A02F00F00081B1F5803F21
:1018000040F01A8140F480301CE100BF20690028BC
:1018100040F20000C4F2422000F088800121016003
:10182000FFF798FC054600BF306880073FF572AFB0
:10183000FFF790FC401B0228F6D9032002B0BDE858
:10184000F08100BFE168306A002900F09D80052921
:1018500000F09280012940F0AF8040F00100B1E03B
:101860000020C4F242200021C0F88014FFF772FC6F
:10187000054600BF706A80077FF556AFFFF76AFC28
:10188000401B0228F6D9032002B0BDE8F08100BF5A
:101890000027C4F2422700203866FFF75BFC022DC8
:1018A00005460DD13068800140F1DE80FFF752FC23
:1018B000401B02284FF00300F4D902B0BDE8F081CC
:1018C000306880014FD5FFF745FC401B02284FF0E0
:1018D0000300F5D9F1E700BF40F21400C2F20000A6
:1018E000006844F6D351C1F26201A0FB0101480A2D
:1018F000019000BF00BF0198411E002801913FF4F4
:1019000013AF00BF0198411E002801913FF40CAFB6
:1019100000BF0198411E002801913FF405AF00BFB0
:101920000198411E00280191E4D1FDE600210160EB
:10193000FFF710FC054600BF306880077FF5F1AE69
:10194000FFF708FC401B02284FF00300F4D9B4E76E
:101950007068216A00F480328A4209D1616A00F419
:101960007010884204D1002002B0BDE8F08100BFB1
:10197000012002B0BDE8F08140F004003062306A1E
:1019800040F001001EE000BF20F001003062306A2C
:1019900020F004003062FFF7DDFB054641F2883796
:1019A000306A800720D5FFF7D5FB401BB8424FF0C7
:1019B0000300F5D981E700BF20F001003062306AF2
:1019C00020F004003062FFF7C5FB054641F288377E
:1019D000306A800708D4FFF7BDFB401BB842F7D937
:1019E000032002B0BDE8F081B8F1000F3FF59FAED3
:1019F000F06920F08050F06199E600BF40F480204B
:101A00003060306840F480301CE000BF20F480304B
:101A10003060306820F480203060FFF79BFB054683
:101A2000306880037FF55EAEFFF794FB401B6428AF
:101A30004FF00300F4D940E720F480303060306884
:101A400020F480203060FFF785FB05463068800376
:101A50003FF548AEFFF77EFB401B6428F6D9032014
:101A600002B0BDE8F08100BF206AB0F5803F05D12B
:101A70007168A26821F40031114371607168626A73
:101A800021F4741111430843706001203866FFF798
:101A900061FB0446306880013FF565AFFFF75AFBF4
:101AA000001B02284FF00300F4D906E790F851001C
:101AB0007047000070B528B1416A29B10021016169
:101AC000142106E0012070BD4168B1F5827F02D08B
:101AD0001C21002242500026866290F8511029B93C
:101AE00080F85060054600F039F82846022180F859
:101AF000511090E82E0002F482720C6803F4044343
:101B000024F040040C601A4405F4006305691A448B
:101B100005F0020345691A4405F001038569C469AB
:101B20001A4405F400731A4404F03803046A1A4492
:101B300004F08003846A1A4304F400531A430A60D1
:101B4000042202EA15424A60CA6922F40062CA61AC
:101B50000121466580F85110304670BD70B586B0E1
:101B600040F60004C4F20104006804F52051002688
:101B700088420596CDE90366029601D006B070BD95
:101B800041F21800C4F20200016802AD41F4805134
:101B90000160016801F4805101910199016841F0EF
:101BA000040101600068294600F0040001900198DA
:101BB000A020029002200390032005902046FFF70A
:101BC000BBF94020CDE90206204629460496FFF7DE
:101BD000B3F906B070BD00002DE9F04182B00446B3
:101BE00090F85100012819D160681D4617460E462D
:101BF000B0F5827F01D1A068A0B1FFF7ABFA8046B3
:101C0000002E4FF0010018BF002F03D102B0BDE835
:101C1000F08100BF94F85000012811D1022002B0D9
:101C2000BDE8F081042084F8510020463146324658
:101C30003B46009500F0CEF902B0BDE8F08100BF50
:101C4000012084F850000420002184F851006165CF
:101C5000A663A787E7872163A186E186A26820683B
:101C6000B2F5004F2164616438D00168490640D55F
:101C7000E168E08F002944D000287BD0681C0CD19B
:101C80001BE000BFC068A16B21F8020BA163E08FCD
:101C90000138E087E08F00286CD020688168C90790
:101CA000F0D1FFF757FAA0EB0800A842F2D342E0C8
:101CB000FFF750FAE08F00285CD020688168C907E0
:101CC000F6D0C068A16B21F8020BA163E08F013848
:101CD000E087E08F0028F0D14CE000BF016821F0E0
:101CE00040010160016821F48041016001684906FA
:101CF000BED4016841F040010160E168E08F002935
:101D0000BAD1B8B3681C0CD124E000BF007BA16B32
:101D10000870A06B0130A063E08F0138E087E08F8E
:101D200040B320688168C907F0D1FFF713FAA0EB30
:101D30000800A842F3D3012084F85100002084F861
:101D40005000032002B0BDE8F08100BFFFF702FAA7
:101D5000E08F78B120688168C907F7D0007BA16B5C
:101D60000870A06B0130A063E08F0138E087E08F3E
:101D70000028EFD16068B0F5827F11D1A068B0F57E
:101D8000004F02D0B0F5806F0AD12168B0F5806FA6
:101D90000A6822F040020A6002D12046012101E0D7
:101DA0002046802100222B46CDF8008001F006FB62
:101DB00028B1606D40F02000606520206065012042
:101DC00084F85100002084F85000606D002818BF8E
:101DD000012002B0BDE8F0812DE9F04182B01D463E
:101DE00016460F460446FFF7B5F994F8511001293D
:101DF0000ED18046002F4FF0010018BF002E03D1F6
:101E000002B0BDE8F08100BF94F85000012803D172
:101E1000022002B0BDE8F081012084F850000320C8
:101E2000002184F8510061652763A686E686A163D8
:101E3000A187E187A0682164B0F5004F2068616444
:101E400007D1016821F040010160016841F480413F
:101E500001600168490603D4016841F04001016056
:101E60006168731EE268B1FA81F1B3FA83F349093C
:101E70005B09B2F5006F41EA030139D131B137F89E
:101E8000021BC1602763E08E0138E086E08E0028E7
:101E900070D0681C0BD11AE0216B31F8022BC260A4
:101EA0002163E08E0138E086E08E002862D0206851
:101EB00081688907F0D4FFF74DF9A0EB0800A8422C
:101EC000F2D338E0FFF746F9E08E002852D02068C0
:101ED00081688907F6D5216B31F8022BC260216336
:101EE000E08E0138E086E08E0028F0D142E000BFAD
:101EF00039B139780173206B01302063E08E0138ED
:101F0000E086E08EB0B3681C0BD123E0216B09782A
:101F10000173206B01302063E08E0138E086E08E93
:101F200040B3206881688907F0D4FFF713F9A0EB6C
:101F30000800A842F3D3012084F85100002084F85F
:101F40005000032002B0BDE8F08100BFFFF702F9A6
:101F5000E08E78B1206881688907F7D5216B097810
:101F60000173206B01302063E08E0138E086E08E43
:101F70000028EFD12046022101222B46CDF8008017
:101F800001F01CFA40B92046802100222B46CDF8F2
:101F9000008001F013FA28B1606D40F02000606508
:101FA00020206065A06838B9002001902068C168D1
:101FB0000191806801900198012084F8510000206F
:101FC00084F85000606D002818BF012002B0BDE801
:101FD000F08100002DE9F04383B01E4615460F4600
:101FE0000446FFF7B7F894F851108146012909D14A
:101FF000002F4FF0010018BF002D0FD103B0BDE836
:10200000F08300BF6068B0F5827F0DD104294FF0E6
:102010000200F3D1A1680029EAD0EFE7002EEDD04D
:1020200094F85000012803D1022003B0BDE8F083EA
:10203000012084F8500094F85100002104281CBFAE
:10204000052084F851006165A563E687A6872763AC
:10205000E6862068A686216461640168490603D487
:10206000016841F0400101606168731EE268B1FAE5
:1020700081F1B3FA83F3DDF8288049095B09B2F5F1
:10208000006F41EA030165D131B137F8021BC1602D
:102090002763E08E0138E086012518F1010032D176
:1020A00002E000BFFFF756F8E08E18B9E08F002875
:1020B00000F0B8802068816889070CD5E18E51B1A5
:1020C000012D08D1216B002531F8022BC26021635C
:1020D000E18E0139E1868168C907E3D0E18F0029EB
:1020E000E0D0C068A16B012521F8020BA163E08F4D
:1020F0000138E087D6E700BFFFF72CF8A0EB090016
:10210000404580F0AF80E08E18B9E08F002800F0E5
:1021100089802068816889070CD5E18E51B1012D35
:1021200008D1216B002531F8022BC2602163E18EBA
:102130000139E1868168C907DED0E18F0029DBD053
:10214000C068A16B012521F8020BA163E08F013863
:10215000E087D1E739B139780173206B0130206312
:10216000E08E0138E086012518F1010032D101E04E
:10217000FEF7F0FFE08E10B9E08F002852D0206803
:10218000816889070ED5E18E61B1012D0AD1216BDD
:10219000002509780173216B206801312163E18EEC
:1021A0000139E1868168C907E2D0E18F0029DFD0DB
:1021B000C068A16B01250870A06B0130A063E08F9F
:1021C0000138E087D4E700BFFEF7C4FFA0EB0900A9
:1021D000404547D2E08E08B9E08F18B32068816887
:1021E00089070ED5E18E61B1012D0AD1216B002541
:1021F00009780173216B206801312163E18E013977
:10220000E1868168C907DFD0E18F0029DCD0C06892
:10221000A16B01250870A06B0130A063E08F01382D
:10222000E087D1E72046022101224346CDF8009005
:1022300001F0C4F840B92046802100224346CDF881
:10224000009001F0BBF8B8B1606D40F0200060650F
:1022500020206065002084F85000012003B0BDE814
:10226000F08300BF012084F85100002084F8500062
:10227000032003B0BDE8F083A06838B900200290C5
:102280002068C1680291806802900298012084F859
:102290005100002084F85000606D002818BF012014
:1022A00003B0BDE8F0830000411E0020B0EB116FC9
:1022B0001CBF012070474EF21002CEF200025160A6
:1022C0004EF62351CEF20001F0230B7007219060EF
:1022D00011607047704700007047000090F83C2084
:1022E000012A4FF0020236D010B580F83D20026876
:1022F000D2F804E0D2F808C00C682EF07003234333
:1023000040F2FF74C4F20004A24253600ADCB2F14E
:10231000804F13D040F20043C4F200039A420DD024
:1023200011E000BF42F60043C4F201039A4205D017
:1023300040F60003C4F200039A4204D149682CF02D
:102340008003194391600121002280F83D1080F83C
:102350003C20BDE81040104670470000002804BF34
:102360000120704710B590F83D1031B9002180F878
:102370003C10044600F070F82046022180F83D1021
:10238000016840F2FF740B68C4F2000442F6004C8E
:10239000A142C4F2010C15DCB1F1804F1AD040F219
:1023A0000042C4F20002914214D0A14218DCB1F103
:1023B000804F1DD040F20042C4F20002914217D07B
:1023C0001AE000BF614505D040F60002C4F20002E9
:1023D0009142EAD1826823F070031343A142E6DD03
:1023E000614505D040F60002C4F20002914203D1DB
:1023F000026923F440731343846923F08002D0F808
:1024000004E0C368224361450A60CB62C1F828E05A
:1024100002D14269CCF8302001224A610B69DB0706
:1024200003D00B6923F001030B6180F8462080F88C
:102430003E2080F83F2080F8402080F8412080F83E
:10244000422080F8432080F8442080F8452080F81E
:102450003D20002010BD000080B582B00068B0F1C2
:10246000804F1DD042F60041C4F20101884224D1C0
:1024700041F21800C4F202000168002241F4006138
:1024800001600068012100F40060019001981920AA
:10249000FEF7E0FE192002B0BDE88040FEF7C8BE9E
:1024A00041F21800C4F20200416841F001014160AC
:1024B000406800F001000090009802B080BD00006C
:1024C00090F83D1001291CBF01207047022180F8BF
:1024D0003D10006840F2FF72C168C4F200029042F1
:1024E00041F00101C16009DCB0F1804F12D040F22F
:1024F0000041C4F2000188420CD012E042F60041D3
:10250000C4F20101884205D040F60001C4F2000186
:10251000884206D1816801F00701062904BF002026
:102520007047016841F00101016000207047000020
:1025300090F83C20012A4FF002026CD080B580F860
:102540003D20D0F800C04FF67772DCF8083023EA5F
:102550000202CCF808200B684F2B29DC1F2B45DD2D
:10256000202B46D0302B44D0402B40F0AF80D1F808
:1025700004E0C968DCF82030DCF8202022F00102F9
:10258000CCF82020DCF8182022F0F00242EA0111F9
:1025900023F00A0242EA0E02CCF81810CCF82020F0
:1025A000DCF8081041F0470121F0300128E000BFBD
:1025B0006F2B33DDB3F5005F74D0B3F5805F21D0AE
:1025C000702B40F08380D1E901E3C968DCF8082072
:1025D00043EA0E0322F47F4243EA01211143CCF87F
:1025E0000810DCF8081041F0770109E00BB1102B5E
:1025F0006CD1DCF8081021F07001194341F007019B
:10260000CCF808100022012180F83D10002180F84C
:102610003C10BDE880401046704700BF502B21D0D1
:10262000602B53D1D1F804E0C968DCF82030DCF825
:10263000202022F01002CCF82020DCF8182022F410
:10264000704242EA013123F0A00242EA0E12CCF8B5
:102650001810CCF82020DCF8081041F0670121F0B8
:102660001001CDE7D1F804E0C968DCF82030DCF8CF
:10267000202022F00102CCF82020DCF8182022F0E3
:10268000F00242EA011123F00A0242EA0E02CCF8FB
:102690001810CCF82020DCF8081041F0570121F088
:1026A0002001ADE7D1E901E3C968DCF8082043EA7D
:1026B0000E0322F47F4243EA01211143CCF80810B3
:1026C000DCF8081041F480419AE700BF01229AE744
:1026D0007047000070B504460068C5680669B10718
:1026E00016D515F0020113D06FF00201016101212E
:1026F00021778069800703D02046FFF7E9FF05E0D6
:10270000204600F0C7F8204600F048FA0020207765
:10271000700719D515F0040016D020686FF0040179
:10272000016102212177806910F4407F04D02046A6
:10273000FFF7CEFF06E000BF204600F0ABF82046D2
:1027400000F02CFA00202077300717D515F008008C
:1027500014D020686FF00801016104212177C0695D
:10276000800703D02046FFF7B3FF05E0204600F0C6
:1027700091F8204600F012FA00202077F00619D5D3
:1027800015F0100016D020686FF0100101610821CB
:102790002177C06910F4407F04D02046FFF798FFEE
:1027A00006E000BF204600F075F8204600F0F6F97C
:1027B00000202077F00718BF15F0010002D1300685
:1027C00009D412E020686FF001010161204600F099
:1027D00055FA300609D515F0800006D020686FF054
:1027E000800101612046FFF775FD700609D515F0DF
:1027F000400006D020686FF040010161204600F0E3
:1028000035FBB00658BF70BD15F0200008D0216818
:102810006FF0200220460A61BDE87040FFF75CBD02
:1028200070BD000080B586B00068B0F1804F4FF0F9
:102830000000CDE90400CDE9020001D006B080BD62
:1028400041F21800C4F20200016841F00401016085
:10285000006802A900F00400019001984FF40040C4
:10286000029002200390059040F60000C4F201009F
:10287000FEF762FB0420C4F2010001684FF6FF423C
:10288000CFF6FF02114041F0E06141F48071016038
:1028900006B080BD7047000090F83C30012B04BFAB
:1028A000022070474FEAB202032A00F2F1802DE9BC
:1028B000F043DFE802F003A53B7500BF036842F672
:1028C00000461D6A1A6AC4F2010622F001021A6269
:1028D0001A465C6852F818CFB3428E68D1F800E00F
:1028E00025F0020545EA06050CD1CE68D1E9057848
:1028F00024F4407425F00C0526F004063C433543CF
:1029000044EA08042CF0730747EA0E075C609F61F5
:102910004F6809695F631D629F6947F008079F61FF
:102920009F6927F004079F61A6E000BF036842F695
:1029300000461D6A1A6AC4F2010622F480721A6205
:102940001A46D3F804C052F81CEFB3428E680C68E4
:1029500025F4007545EA06250FD1CE68D1E9059822
:10296000360240F2FF4725F44065BE4335432CF460
:10297000405748EA090647EA061C2EF0730727432A
:10298000C3F804C0DF614F680969DF631D62DF6956
:1029900047F00807DF61DF6927F00407DF616BE0BC
:1029A000036842F60047D3F820C01A6AC4F2010750
:1029B00022F480521A621A465C6852F81C5FD1F801
:1029C00000E08E68BB4204D14F6924F4804444EA9D
:1029D00087142CF4005747EA063725F4E64646EA02
:1029E0000E265C60DE614E6809691E641F62DF6945
:1029F00047F40067DF61DF6927F48067DF613AE051
:102A0000036842F600461D6A1A6AC4F2010622F003
:102A100010021A621A46D3F804C052F8184FB34293
:102A20008E68D1F800E025F0200545EA06150FD1A3
:102A3000CE68D1E905986FF0400725F0C00507EA98
:102A4000061635432CF4406748EA090647EA860C27
:102A500024F4E64444EA0E27C3F804C09F614F689B
:102A600009699F631D629F6947F400679F619F69C1
:102A700027F480679F6109021368194311600021E0
:102A8000BDE8F043002280F83C200846704700BFB4
:102A90000121002280F83C2008467047002804BF2E
:102AA0000120704710B590F83D1031B9002180F831
:102AB0003C10044600F070F82046022180F83D10DA
:102AC000016840F2FF740B68C4F2000442F6004C47
:102AD000A142C4F2010C15DCB1F1804F1AD040F2D2
:102AE0000042C4F20002914214D0A14218DCB1F1BC
:102AF000804F1DD040F20042C4F20002914217D034
:102B00001AE000BF614505D040F60002C4F20002A1
:102B10009142EAD1826823F070031343A142E6DDBB
:102B2000614505D040F60002C4F20002914203D193
:102B3000026923F440731343846923F08002D0F8C0
:102B400004E0C368224361450A60CB62C1F828E013
:102B500002D14269CCF8302001224A610B69DB07BF
:102B600003D00B6923F001030B6180F8462080F845
:102B70003E2080F83F2080F8402080F8412080F8F7
:102B8000422080F8432080F8442080F8452080F8D7
:102B90003D20002010BD000070470000704700007D
:102BA000C1B1042908D0082914BF41224022825C07
:102BB000012A05D016E000BF3F22825C012A11D114
:102BC0000222082910D0042914BF80F8412080F87F
:102BD0003F200BE090F83E20012A03D1022280F82A
:102BE0003E2003E00120704780F84020006801F09B
:102BF0001F010122036A8A4023EA02010162036A7B
:102C000042F64441C4F201011A43A1F1440398423F
:102C100002620FD040F2FF71C4F20001884213DC5F
:102C2000B0F1804F1CD040F20041C4F20001884254
:102C300016D01CE00A6842F400420A6040F2FF71BC
:102C4000C4F200018842EBDD42F60041C4F201010A
:102C5000884205D040F60001C4F20001884206D146
:102C6000816801F00701062904BF00207047016850
:102C700041F00101016000207047000040F2901116
:102C8000C2F2000100680968884218BF70472DE948
:102C9000F04F81B040F20000C2F20000866840F2BE
:102CA00080084FF07E503146C2F2000801F0C6FCA9
:102CB000D8E91371D8E9099A054601F0F3FB0446F7
:102CC0003846314601F0EEFB214601F0BDF9D8E966
:102CD00015710446C8F85000284601F0E3FB05468C
:102CE0003846314601F0DEFB294601F0ADF90146D8
:102CF000C8F85800204601F0A1FC494601F09EFCAE
:102D00000026C4F2C826314601F0CCFB04465046EA
:102D1000494601F093FC0146204601F02DFA0021BE
:102D2000054601F016FA002818BF0025284631464E
:102D300001F0FAF900281CBF0025C4F2C825D8F814
:102D40005C4029462046C8F8345001F077FC014623
:102D5000C8F838002046FDF72DFCD8E90E564DF294
:102D60000A71D8E90B9AC3F62341284601F09AFB71
:102D7000314601F069F906462046002101F0C6F906
:102D80008346002840F20000C2F2000018BF00266F
:102D9000D0E900703146C8F83C6001F083FB0021A7
:102DA000064601F0D6F944F20001002818BF0026BB
:102DB000C4F2B541304601F0B7F900282846514623
:102DC0001CBF44F20006C4F2B546C8F8406001F0EA
:102DD00035FC0146484601F065FB4DF20A71C3F629
:102DE000234101F0C9F90446C8F844003846294691
:102DF00001F058FB314601F027F9214601F024F992
:102E00000021044601F0A5F94FF20001002818BF87
:102E10000024C4F26051204601F086F900281CBF4E
:102E20004FF20004C4F26054BBF1000F18BF00243D
:102E3000C8F8484040F2D814C2F2000420460021ED
:102E4000FFF7AEFED8F8480001F08CFA216848631D
:102E5000D8F8381040F29010C2F20000C8F83010D4
:102E600001B0BDE8F04FFFF72BBB0000704700003A
:102E7000FEE70000B0B582B040F60004C4F20104E1
:102E8000204610210022FEF75FF940F23815B020ED
:102E9000C2F200058DF806000DF106012846012258
:102EA0000A23FEF799FF0DF10701284601220A23A4
:102EB000FEF792FE9DF80750204610210122FEF7F2
:102EC00043F9284602B0B0BD10B540F60000C4F288
:102ED0000100102101220124FEF736F940F23810DA
:102EE000C2F20000FEF7E2FD012801D1204610BD2C
:102EF00040F23810C2F20000FEF7D8FD012837D0AA
:102F000040F23810C2F20000FEF7D0FD01282FD0A9
:102F100040F23810C2F20000FEF7C8FD012827D0A9
:102F200040F23810C2F20000FEF7C0FD01281FD0A9
:102F300040F23810C2F20000FEF7B8FD012817D0A9
:102F400040F23810C2F20000FEF7B0FD01280FD0A9
:102F500040F23810C2F20000FEF7A8FD012807D0A9
:102F600040F23810C2F20000FEF7A0FD012801D1A6
:102F7000012010BD40F23810C2F20000FEF796FDAD
:102F80000138B0FA80F04409204610BD2DE9F04127
:102F900082B040F60008C4F2010815460F46044608
:102FA0004046102100221E46FEF7CEF88DF806405E
:102FB00040F23814C2F200040DF10601204601224D
:102FC0000A23FEF709FF2046394604220A23FEF7AA
:102FD00003FF0DF10701204601220A238DF8075057
:102FE000FEF7FAFE204631462A460A23FEF7F4FE93
:102FF000404610210122FEF7A7F802B0BDE8F0819B
:10300000F0B581B040F60007C4F2010714460D4642
:103010000646384610210022FEF796F88DF8036028
:1030200040F23816C2F200060DF1030130460122CB
:103030000A23FEF7D1FE3046294622460A23FEF730
:10304000CBFD384610210122FEF77EF801B0F0BD1D
:10305000B0B582B040F60004C4F20104204610214D
:103060000022FEF771F840F23815A020C2F20005E8
:103070008DF806000DF10601284601220A23FEF70D
:10308000ABFE0DF10701284601220A23FEF7A4FD3D
:103090009DF80750204610210122FEF755F82846DA
:1030A00002B0B0BDB0B582B040F60005C4F2010573
:1030B0000446284610210022FEF746F840F2381058
:1030C000C2F200000DF1070101220A238DF807402A
:1030D000FEF782FE284610210122FEF735F802B0E5
:1030E000B0BD000010B582B040F60004C4F2010487
:1030F000204610210022FEF727F8C0208DF8070097
:1031000040F23810C2F200000DF1070101220A233B
:10311000FEF762FE204610210122FEF715F802B0EC
:1031200010BD00002DE9F04F83B040F60004C4F25A
:103130000104204610210022FEF706F840F238155F
:103140000220C2F200058DF806000DF106012846A6
:1031500001220A230A27FEF73FFE0F208DF8070001
:103160000DF10701284601220A23FEF735FE8020D3
:103170008DF8080002A9284601220A23FEF72CFE3A
:10318000204610210122FDF7DFFF0DF109084FF065
:103190000E0B0DF10A090DF10B0600BF20461021A0
:1031A0000022FDF7D1FF03208DF809002846414693
:1031B00001220A23FEF710FE2846494601220A236F
:1031C0008DF80AB0FEF708FE2846314601220A2390
:1031D000FEF702FD9DF80BA0204610210122FDF70D
:1031E000B3FF0AF0E00080281CBF013F5FEA0761DF
:1031F000D4D18038B0FA80F0400903B0BDE8F08F38
:103200002DE9F04F83B040F60004C4F201042046DB
:10321000102100220026FDF797FF40F2381502200A
:10322000C2F200058DF806000DF1060128460122C4
:103230000A230A27FEF7D0FD0F208DF807000DF1B5
:103240000701284601220A23FEF7C6FD02A92846E7
:1032500001220A238DF80860FEF7BEFD20461021EA
:103260000122FDF771FF0DF109084FF00E0B0DF172
:103270000A090DF10B0600BF204610210022FDF7C0
:1032800063FF03208DF809002846414601220A23E6
:10329000FEF7A2FD2846494601220A238DF80AB00E
:1032A000FEF79AFD2846314601220A23FEF794FCD8
:1032B0009DF80BA0204610210122FDF745FFBAF131
:1032C000200F02D3013F3806D6D10020BAF1200FDB
:1032D00038BF012003B0BDE8F08F0000F0B581B029
:1032E00040F60004C4F201040D46064620461021B3
:1032F0000022FDF729FF40F238170220C2F2000732
:103300008DF801000DF10101384601220A23FEF774
:1033100063FD0DF10201384601220A238DF8026097
:10332000FEF75AFD0DF10301384601220A238DF8FC
:103330000350FEF751FD204610210122FDF704FF46
:1033400001B0F0BD2DE9F04182B040F60008C4F2B2
:10335000010815460E460746404610210022FDF79B
:10336000F3FE40F238140220C2F200048DF8060089
:103370000DF10601204601220A23FEF72DFD0DF175
:103380000701204601220A238DF80770FEF724FD6D
:10339000F01B0130C2B2204629460A23FEF71CFD6D
:1033A000404610210122FDF7CFFE02B0BDE8F081BA
:1033B000FEE70000FEE70000704700002DE9F04343
:1033C00081B0089C984615460E468146FDF7C2FE20
:1033D000201A00EB0804FDF7BDFE40F21401C2F212
:1033E00000010968C1F3CB3161430091D9F80010A5
:1033F0008A683240921BB2FA82F25209AA423DD048
:10340000074618F1010031D0FDF7A4FEC01BA04211
:1034100038D2009800990028A1F101010091D9F853
:103420000010896808BF044601EA0600801BB0FA54
:1034300080F04009A842E7D120E000BF8868304012
:10344000801BB0FA80F04009A84217D0886830404D
:10345000801BB0FA80F04009A8420FD08868304045
:10346000801BB0FA80F04009A84207D0886830403D
:10347000801BB0FA80F04009A842DFD1002001B0E3
:10348000BDE8F083D9E900014268B1F5827F22F0FE
:10349000E00242600BD1D9F80810B1F5004F02D01C
:1034A000B1F5806F03D1016821F040010160D9F8C6
:1034B0002810B1F5005F07D1016821F400510160C7
:1034C000016841F400510160012089F85100002099
:1034D00089F85000032001B0BDE8F0837047000078
:1034E0002DE9F04383B040F60044C4F201042046C5
:1034F000082101220127FDF727FE20461021002286
:103500000024FDF721FE40F2D819C2F20009484616
:103510000021FFF745FBD9F8000044634FF47A70AF
:10352000FDF7F6FC40F2F400C2F2000000F11405D1
:10353000072469462846CDE900770294FDF768F92B
:1035400020B1EFF3108072B6FEE700BF2846FDF70A
:1035500037FC28460521FDF7FBFA2846FDF714FA4B
:1035600006462846FDF794FC40F280080220C2F28D
:103570000008CDE9000769462846A8F802600294D1
:10358000FDF746F920B1EFF3108072B6FEE700BFF9
:103590002846FDF715FC28460521FDF7D9FA2846EF
:1035A000FDF7F2F906462846FDF772FC4846002171
:1035B000A8F80460FFF7F4FAD9F8000040F6980183
:1035C00041634FF4FA60FDF7A3FC01240727694625
:1035D0002846CDE900440297FDF71AF920B1EFF330
:1035E000108072B6FEE700BF2846FDF7E9FB2846CB
:1035F0000521FDF7ADFA2846FDF7C6F9064628462F
:10360000FDF746FC02208DE8910069462846A8F89F
:103610000660FDF7FDF828B1EFF3108072B600BF29
:10362000FEE700BF2846FDF7CBFB28460521FDF746
:103630008FFA2846FDF7A8F906462846FDF728FC2C
:1036400048460021A8F808600024FFF7A9FAD9F835
:10365000000044634FF47A70FDF75AFCB8F802009A
:10366000B8F80410401A00F09DFEB8F80610B8F83B
:103670000820C8F82400881A00F094FEC8F8280032
:1036800003B0BDE8F0830000FDF76ABD704700009D
:1036900040F29010C2F20000FFF71CB8FEE70000F5
:1036A00094B0FDF76BFD00240120CDE90F44CDE976
:1036B0000D440A900E904FF4E0104FF48031022533
:1036C00013900AA80394CDE90144CDE90B14CDE988
:1036D0001151FDF7EBFF28B1EFF3108072B600BF78
:1036E000FEE700BF0F20CDE904054FF48060CDE96F
:1036F000070404A802210694FDF7E6FE20B1EFF3CB
:10370000108072B6FEE700BF4FF40040022702901F
:1037100068460097FDF756FE20B1EFF3108072B6B1
:10372000FEE700BF002541F21800CDE90C55CDE9B8
:103730000A55C4F20200016840F6000841F0200179
:1037400001600168C4F2010801F0200104910499AC
:103750000168002241F0040101600168102601F0B7
:10376000040104910499016841F0080101600068B6
:10377000102100F00800049004984046FDF7E4FC96
:1037800008F580642046182100224FF0180AFDF742
:10379000DBFC0A960AAE4FF0010940463146CDE9FE
:1037A0000B950D97FDF7C8FB20463146CDE90AA9D8
:1037B000CDE90C57FDF7C0FB40F2F404C2F200045F
:1037C00008F5E051204640F8141F4FF460210573BE
:1037D0000575C161C0E90155C0F81090FDF7D8F832
:1037E00020B1EFF3108072B6FEE700BF0220CDE9F2
:1037F0000A09072004F114060C900AA93046FDF7C7
:1038000007F828B1EFF3108072B600BFFEE700BFE3
:1038100040F29010002108F51052C2F2000041F66B
:103820001F4363270D91CDE90B11CDE90411C0E9C8
:103830000023C0E90217C0E904118161FEF78EFD83
:1038400020B1EFF3108072B6FEE700BF4FF4805056
:103850000A9040F29010C2F200000AA9FEF768FE3A
:1038600020B1EFF3108072B6FEE700BF40F2901077
:10387000C2F2000004A9FEF731FD28B1EFF3108079
:1038800072B600BFFEE700BF40F2D8100021C2F2BE
:1038900000004FF0804240F60F630791CDE905111B
:1038A000CDE90011CDE90F11CDE90D11C0E90021DD
:1038B000C0E9021301618161FEF750FD20B1EFF311
:1038C000108072B6FEE700BF4FF48050049040F2C3
:1038D000D810C2F2000004A9FEF72AFE20B1EFF3CF
:1038E000108072B6FEE700BF40F2D810C2F20000AE
:1038F000FFF7D4F820B1EFF3108072B6FEE700BFF7
:1039000040F2D810C2F200006946FEF7E7FC18B199
:10391000EFF3108072B6FEE760200A9040F2D810F4
:103920000025C2F200000AA90022CDE90B550E9530
:10393000FEF7B2FF20B1EFF3108072B6FEE700BFD2
:1039400040F2D810C2F20000FEF76CFF40F23810CF
:1039500008F52051C2F200004FF482724FF4007358
:10396000102780E826000A21C0E90355C0E9055365
:10397000C761C0E90855C0E90A51FEF79BF818B1C4
:10398000EFF3108072B6FEE73046FCF7B3FEFFF7A8
:10399000A9FBFCF7F1FCFFF7A3FD40F28007C2F2A0
:1039A00000074FF4887078660820D7E9091287F875
:1039B000680007F16000C7F86910C7F86D20FCF7D0
:1039C00087FD40F29010C2F20000FEF779FD40F250
:1039D000000540F20008C2F20005C4F2C8282046E3
:1039E000FCF726FD0028FAD06068A0F21110052827
:1039F000F5D8DFE800F0052103030F19EFE700BF5A
:103A0000207A0828EBD1D4F80900D4F80D10C5E9C4
:103A10000001E4E7207A0828E1D1D4F80900D4F8BD
:103A20000D10F8647965DAE7207A0428D7D1D4F844
:103A30000900A860D3E700BF207A0428CFD1D4F8CA
:103A400009600021304600F084FB002818BF0026E2
:103A500030464146FE6500F075FB002808BFC7F8F8
:103A60005C80BCE721F0004201F00043A2F160520B
:103A7000B2F5801F28BFD2F17F6C0BD95FEA001C22
:103A800043EAC20242EB507018BF704728BF20F0D3
:103A900001007047B2F5801FBCBF184670474FEA5F
:103AA000410C1CF5001F02D2084600F0C2BD70B5E3
:103AB00000F05CF900000089FFF7F6BF4FF000400E
:103AC000A0F580007047000010B591EA030F48BFD1
:103AD00083F0004300F1A681841A71EB030C05D238
:103AE000121943EB0C03001B61EB0C014FEA11545C
:103AF000A4EB135CDFF81CE11EEA430F18BF9EEA3B
:103B0000445F00F0748021EA045123EA0E0343F479
:103B10008013DCF1200E32D322FA0CFE10EB0E00E3
:103B200023FA0CFE41EB0E01CCF1200E03FA0EFE3F
:103B300010EB0E00CCF1200E51F10001B1F5801F09
:103B400032D201EB045112FA0EF2BDE8104058BF18
:103B50007047401C38BF5FEA420218BF7047002818
:103B600014BF20F0010041F100014FEA410313F5B9
:103B7000001F38BF7047A1F1C04100F045B9012ACC
:103B800043EB0302ACF1200CDCF11F0E32BF4FF00F
:103B9000000E23FA0CF310EB030041EB0451B4EBDD
:103BA000115FD0D0A1EB045101F58011490801EB60
:103BB00004515FEA30000ED350F1000038BF12FA12
:103BC0000EFE08D1BDE81040C9E7401C38BF5FEACF
:103BD0004202CAD1C3E7BDE810404FEA410313F5E2
:103BE000001F38BF7047A1F1C04100F00DB99EEA37
:103BF000445F08D011EA5E0FBDE8104004BF01F039
:103C0000004100207047BDE8104070B500F0AEF8EC
:103C100064FBBE3E0000E0FF70B5DFF848C11CEA5F
:103C2000111E1EBF1CEA13159EEA0C0F95EA0C0F1D
:103C300000F06F8081EA03044EEAD47EAE4421EAAC
:103C40004C1123EA4C1341F4801143F48013AEF17C
:103C50007F7EA1FB024CA0FB0365361955EB0C05DA
:103C6000A1FB034C4CF10003A0FB021C16EB0C065D
:103C7000654153F10003094218BF46F0010613F4F1
:103C8000007F0BD14FEA03314FEA053041EA15516D
:103C900040EA165034036FF003020AE04FEAC321F2
:103CA0004FEAC52041EA555140EA5650F4026FF000
:103CB000020202EB2E4201EB025585EACE710AD0D8
:103CC0005FEA440C18BF24F0004450F1000041F1B9
:103CD000000120EAD47040F2FE7C624500D270BD43
:103CE000A84214BF4FF080444FF04044002E08BF5C
:103CF0000024BEF1806FA8BFA1F1C041BDE87040B3
:103D000080F2828001F1C04101F000414FF00000DB
:103D100070470CEA13159EEA0C0F18BF95EA0C0FBA
:103D200006D081EA030E4FF000000EF0004170BD96
:103D300000F01CF88900013E00F007B800F009B857
:103D40004FEA430C5FEA5C5C08D081EA030100F0B3
:103D50005BB84FEA410C5FEA5C5CF6D102494FF078
:103D6000000070470000FF070000F87F0EF1020E10
:103D70002EF0030E5EF8046B364205D4012A43EBA5
:103D8000030515F5001F12D8012841EB010C1CF5A5
:103D9000001F0CD80ED14FEAD17C0CEB4C0C0CF16F
:103DA000020C15F5001F08BF4CEBD37C04E04FF06C
:103DB000080C01E04FEAD37C0CEB4C0526FA05F623
:103DC00006F00706B6F1040C06D20EEB860CBDE831
:103DD00070404CF0010C6047DFE80CF0090B020268
:103DE0004FF00041A1F500214FF0000070BD1946D1
:103DF0001046012851EB010418BFD4F5001484BF0C
:103E0000002001F0004170BD0808A0F500114FEA44
:103E10003101704710B591EA030F48BF83F00043AA
:103E20003FF55AAE841A71EB030C07D28CF0004CAC
:103E3000121943EB0C03001B61EB0C014FEA115408
:103E4000A4EB135CDFF8A4E11EEA430F18BF9EEA5F
:103E5000445F00F0B48021EA045123EA6E03524229
:103E6000C3EB6E0338BF5B1EDCF1200E25D322FAB4
:103E70000CFE10EB0E0043FA0CFE41EB0E01CCF1F0
:103E8000200E03FA0EFE10EB0E00CCF1200E51F1C5
:103E9000000129D401EB045112FA0EF2BDE81040E2
:103EA00058BF7047401C1CBFB2F1004F704700283C
:103EB0000CBF491C20F00100704712EB020E43EBCF
:103EC000030218BF4FF0010E4EEA4202ACF1200C83
:103ED000DCF11E0E56D943FA0CFE10EB0E00CCF1AD
:103EE0001E0E51F1FF31D5D50EF1010E12FA0EFE64
:103EF000404141EB010101EB445C5FEA5C5C10D99D
:103F000001EB045110EBDE7038BFBEF1004FBDE88D
:103F1000104018BF704700280CBF491C20F001005A
:103F2000704734D24FEAD42C24F4006411F5001108
:103F30001BD0B1FA81F20B3AA41AA41ED2F12003CD
:103F4000914030FA03F31943904001EBCC7101EB3F
:103F50000451002CBDE81040A8BF704701F1C041DA
:103F600001F000414FF000007047B0FA80F310FA02
:103F700003F102D1BDE810407047E41A173C480530
:103F8000C90AE2E701EB0451BDE81040704749104F
:103F90004FEA300001EB0451BDE8104002E04FF061
:103FA000000170474A0008BF0042F8D0B2F5001F78
:103FB00028BF704701F000414FF0000070479EEAB3
:103FC000445F07D011EA5E0FBDE8104004BF002136
:103FD00000207047BDE8104070B5FFF7C7FE00BF76
:103FE00040DFF63E104683F0004170470000E0FFDE
:103FF00043004FEAD30C4FEA3C0C43401FBF40073D
:104000000CF1605113F0FE4F70471CF0006F03D1AC
:104010000CF00041002070470CF0004343EA507060
:1040200040EACC0010B500F0BEFA00BF00000092DC
:104030004FEA0001FFF7E8BE4FF00041A1F5002173
:104040004FF000007047000090EA010F48BF81F078
:10405000004100F1FA82421A3CBF801A89184FEAE7
:10406000D052A2EBD1534FF07F4C1CEA410F18BF46
:104070009CEA026F00F03B804FF0004C4CEA0020BD
:104080004CEA012121FA03FC10EB0C0C1ED202F1C8
:10409000FF325FEA1C2040EBC25038BF70471CF073
:1040A0007F0F4FEA400C18BFBCF17F4F38BF7047FD
:1040B000C3F12003994008BF20F00100BCF17F4FFD
:1040C00038BF7047A0F1C04000F0B3BA4FEA3C00DF
:1040D000000A40EBC25028BF1CF0FF0F4FEA400C13
:1040E000E6D018BFBCF17F4F38BF7047EAE79CEAC3
:1040F000026F05D010EA5C0F08BF00F00040704767
:1041000010B500F050FA00BF64FBBE3E10B500F0E1
:10411000F5F80CBF0120002010BD10B500F0EEF83E
:1041200014BF0120002010BD10B500F053F98CBF62
:104130000120002010BD10B500F04CF92CBF01206B
:10414000002010BD10B500F079F994BF01200020C7
:1041500010BD10B500F072F934BF0120002010BD71
:10416000401058BFC0F14040491058BFC1F1404114
:104170008142EFF3008070474FF47F0C1CEAD012AD
:104180001EBF1CEAD11392EA0C0F93EA0C0F00F049
:10419000858090EA010F48BF42F4807240F4000C21
:1041A00041F400002CF07F4120F07F4000B5A2EBED
:1041B000030281420FF2081CACEB504E9EF800E067
:1041C000C0F100004FEA4E0E00FB0EFC38BF490064
:1041D0004FEA2C1C0CFB0EF34FEACE1E0EEB635E77
:1041E0004FEA112C0EFB0CFC4FEAC1214FEA1C5385
:1041F00000FB031102F5FA024FEA112C0EFB0CFC36
:104200004FEA01314FEADC4C00FB0C1142EB224239
:10421000C14228BF09184CEB03335DF804EB10EBE7
:10422000410143EBC250B2F57C0F38BF704729D52E
:1042300012F0F00F1CBF00F1C04000F000407047CA
:10424000008182838485868788898B8C8D8E8F916F
:104250009293959697999A9C9D9FA0A2A3A5A7A893
:10426000AAACAEB0B2B3B5B7B9BCBEC0C2C5C7C9BF
:10427000CCCED1D4D7D9DCDFE2E6E9ECF0F3F7FA23
:10428000FE0000004FEA400C0CF1807CBCF17E4F38
:1042900028BF7047B0F1C04000F0CBB90CEAD11391
:1042A00090EA010F48BF42F48072624538BF63450F
:1042B00007D213F47F0F16D080EA010000F000400F
:1042C000704710B500F06FF9097EFC3E00F005B8AC
:1042D00080EA010000F00040704780EA010000F031
:1042E000004000F0A6B912F47F0F04BF02487047E7
:1042F00080EA010000F09DB90000C07F50EA010C87
:1043000000F113801CF5000F58BFBCF5000F01D45D
:104310008842704707D710F5000F58BF11F5000FFE
:1043200015D488427047894270471CF5000F04D5A8
:10433000BCF5000FF7D5814270474FF0807C1CEB35
:10434000400F38BF1CEB410F01D28142704710B5BE
:1043500000F029F9922449004FF000504FF08051AD
:10436000FFF7FEBEC10DD1F19E0206DB4FEA00232E
:1043700043F0004323FA02F07047004207D54FEAAA
:104380004001B1F1FE4F02D24FF00000704710B56E
:1043900000F009F949922480002070476FEA20005C
:1043A0007047000010F0004148BF4042B0FA80F36F
:1043B00010FA03F2C3F19D030BD051EAC35101EB94
:1043C0001220530638BF704700F1010008BF20F0EB
:1043D0000100704750EA010C00F113801CF5000F3A
:1043E00058BFBCF5000F01D48842704707D710F5BD
:1043F000000F58BF11F5000F15D48842704789424D
:1044000070471CF5000F04D5BCF5000FF7D58142AD
:1044100070474FF0807C1CEB400F38BF1CEB410F06
:1044200001D28142704710B500F0BDF892244900D6
:104430004FF080504FF00051FFF792BE50EA010C50
:1044400000F113801CF5000F58BFBCF5000F01D41C
:104450008842704707D710F5000F58BF11F5000FBD
:1044600015D488427047894270471CF5000F04D567
:10447000BCF5000FF7D5814270474FF0807C1CEBF4
:10448000400F38BF1CEB410F01D28142704710B57D
:1044900000F089F8922449004FF000504FF080510D
:1044A000FFF75EBE4FF47F0C1CEAD0121EBF1CEA61
:1044B000D11392EA0C0F93EA0C0F00F0478090EAB8
:1044C000010F48BF42F480724FF0004C4CEA0020CC
:1044D0004CEA012102EB0302A0FB0113A2F500024A
:1044E000002918BF43F001035B0028BF4FEA3303E4
:1044F00042EB22425FEA132C4CEBC2502EBFBCEBC6
:10450000436FB2F57C0F70474FEA036CBCF1004F6C
:1045100008BF20F00100B2F57C0F38BF70470BD503
:1045200082F0FF0212F5803FC8BF704700F1C04023
:10453000D8BF00F00040704700F5000C5FEA4C0C5B
:1045400048BF7047B0F1C04000F073B80CEAD11317
:1045500090EA010F48BF42F48072624538BF63455C
:1045600004D280EA010000F00040704710B500F06E
:104570001AF800BF8900013E00F007B800F009B842
:104580005FEA410C5FEA1C6C08D080EA010000F091
:1045900050B85FEA400C5FEA1C6CF6D14FF0004067
:1045A000A0F5800070470EF1020E2EF0030E5EF8AB
:1045B000044B244204D44FEA4102B2F17F4F11D898
:1045C0004FEA4003B3F17F4F0CD80ED14FEAD07CB5
:1045D0000CEB4C0C0CF1020CB2F17F4F08BF4CEB12
:1045E000D17C04E04FF0080C01E04FEAD17C0CEBE9
:1045F0004C0324FA03F404F00704B4F1040C06D2CB
:104600000EEB840CBDE810404CF0010C6047DFE875
:104610000CF0070802024FF00040A0F5800010BD2A
:104620000846420018BFD2F1807288BF00F00040F7
:1046300010BDFF2141EAD050C005704790EA010F3C
:1046400048BF81F000413FF506AD421A04D882F020
:104650000042A0EB020011444FEAD052A2EBD1532A
:104660004FF07F4C1CEA410F18BF9CEA026F4AD002
:104670004FF0004C4CEA00204CEA012121FA03FCE7
:10468000B0EB0C0C0FD412F0FE0F36D05FEA4C00EA
:104690001DD5001240EBC25038BF70471CF03F0FD1
:1046A00018BF70470BE05FEA1C20A2F1010240EB4B
:1046B000C25038BF70471CF07F0F18BF7047C3F15E
:1046C0002003994014BF401E20F0010070474FEABC
:1046D0001223800808BF7047B0FA80FCA2EB0C02DE
:1046E000CCF1280C60FA0CF093EA122F04BF00EB17
:1046F000C25070474FEAC3707047130A5FEADC107C
:1047000008BF7047F6E79CEA026F04D010EA5C0F1E
:1047100008BF0020704710B5FFF745FF40DFF63EA9
:1047200081F000407047000000000000000001021E
:104730000304060708090000000001020304010247
:1047400002030405060708090A0B0C0D0E0F1010D2
:104750007047000800000020180000005001000809
:1047600088470008180000201008000070010008A9
:1047700000003443000048433333333F010000005E
:084780001000000000127A0095
:04000005080000ED02
:00000001FF
