:020000040800F2
:1000000080070020B501000895200008DD1B0008CE
:1000100091200008BD0200086122000800000000D5
:100020000000000000000000000000007D2100082A
:10003000ED0400080000000099200008812100085C
:10004000CF010008CF010008CF010008CF01000850
:10005000CF010008CF010008CF010008CF01000840
:10006000CF010008CF010008CF010008CF01000830
:10007000CF010008CF010008CF010008CF01000820
:10008000CF010008CF010008CF010008CF01000810
:10009000CF010008CF010008CF010008CF01000800
:1000A000CF010008CF010008CF010008CF010008F0
:1000B000CF010008CF010008CF010008CF010008E0
:1000C000CF010008CF010008CF010008CF010008D0
:1000D000CF01000855220008CF010008CF01000819
:1000E000CF010008CF010008CF01000800F002F89E
:1000F00000F050F814A696E8000CB244B344DA4578
:1001000001D100F047F8BAE80F000FA696E83000DA
:10011000A5EB040504EB0607AAEB0704A7F101070A
:100120004FEA15154FEA3414A4F10104AC4201D38F
:1001300000F030F813F0010F18BFFB1A43F0010371
:1001400000F001F8DBE7184784260000A426000031
:10015000103A24BF78C878C1FAD8520724BF30C8F3
:1001600030C144BF04680C60704700007047000055
:100170000023002400250026103A28BF78C1FBD8B0
:10018000520728BF30C148BF0B6070471FB51FBD65
:1001900010B510BD00F058F81146FFF7F7FF02F058
:1001A00061F800F076F803B4FFF7F2FF03BC00F04B
:1001B0007DF800000948804709480047FEE7FEE750
:1001C000FEE7FEE7FEE7FEE7FEE7FEE7FEE7FEE707
:1001D00004480549054A064B704700008521000880
:1001E000ED0000088001002080070020800300202F
:1001F000800300204FF0000200B513469446964657
:10020000203922BFA0E80C50A0E80C50B1F1200129
:10021000BFF4F7AF090728BFA0E80C5048BF0CC0D7
:100220005DF804EB890028BF40F8042B08BF704735
:1002300048BF20F8022B11F0804F18BF00F8012BA7
:100240007047704770477047754600F02BF8AE4610
:1002500005006946534620F00700854618B020B5D2
:10026000FFF7B6FFBDE820404FF000064FF0000753
:100270004FF000084FF0000BAC46ACE8C009ACE80A
:10028000C009ACE8C009ACE8C00921F007018D46FF
:10029000704710B50446AFF300802046BDE810401B
:1002A000FFF781BF00487047100000200149182067
:1002B000ABBEFEE72600020070470000FEE700002C
:1002C00010B588B000244FF40060CDE900440794D5
:1002D00006900594CDE90344029001F0ABFC0028A0
:1002E00044D001F08FFD00283FD001AA2020232117
:1002F00001F098FE6A462420272101F093FE07AA08
:100300000020032101F08EFE06AA0420072101F03F
:1003100089FE05AA08200B2101F084FE04AA102002
:10032000132101F07FFE03AA1420172101F07AFEA9
:1003300002AA18201B2101F075FE6020042101F0A3
:100340003DFE7020012101F039FE2A20012101F03B
:1003500035FE2920B12101F031FE2820852101F050
:100360002DFE01F0BDFD044600E00024204608B04B
:1003700010BD0000B0B584B0044601F031FC402847
:1003800002D2002004B0B0BD410606D441B2B1F1A2
:10039000FF3F0ADC0546942001E0054690200DF160
:1003A00003010D2201F09CFC284600F018001028E3
:1003B00015D19DF804209DF803101C2302F00305BD
:1003C00003EAD20242EA411102209DF805C0294405
:1003D00020709DF80600090441EA0C2107E0012085
:1003E00020709DF803009DF80420C10050090843C7
:1003F0009DF807106060217202980399C4F8090003
:10040000C4F80D10012004B0B0BD000070B540F27A
:100410002C140546C2F200040020206001F088FC84
:1004200040F28801C2F200014207087010D4297816
:10043000686802291FD101BA090CE0226180C0F36B
:10044000014102EA5032114408316170410D18E057
:10045000C10619D42978686802292AD101BA090C81
:10046000E0226180C0F3014102EA503211440831B8
:100470006170410D23E00021618041016170C0F392
:10048000D7018126402025E0400644BF002070BDF2
:1004900029786868022915D101BA090CE022618027
:1004A000C0F3014102EA5032114408316170410D3C
:1004B0000EE00021618041016170C0F3D701822606
:1004C000422007E00021618041016170C0F3D70143
:1004D000842644202A7A217005F10903214601F07F
:1004E000C5FB304601F04EFC012070BD7047000096
:1004F000014690F82100022813D10868D1E90FC302
:10050000026822F00E020260026822F0010202601C
:10051000012000FA03F2CCF8042081F82100002029
:1005200002E0042088630120002281F82020704727
:1005300090F82110022923D1026840F2040C1168BE
:10054000C4F2020C21F00E01116013682F21C4F2D5
:1005500002018A4223F00103136015DD3023C4F247
:1005600002039A421CD04423C4F202039A421AD0D6
:100570005823C4F202039A421AD14FF480331FE089
:1005800004218163012070470823C4F202039A42C8
:100590000CD01C23C4F202039A4209D110230FE0AD
:1005A0004FF480730CE04FF4805309E0012307E01F
:1005B0000CF168014FF080738A4208BF4FF480133A
:1005C0000121CCF8003080F82110416B0022002975
:1005D00080F8202004BF0020704780B588470020A5
:1005E00080BD0000B0B5044600F018F9054640F2A1
:1005F0000400C2F200000078611C18BF044400BF70
:1006000000F00CF9401BA042FAD3B0BD2DE9F04F29
:1006100082B00E68002E00F0F78041F20042C4F272
:100620000102042340F2004E904208BF03234FF61C
:10063000FF7CC4F2010E009300240123C1F2100CD0
:100640004FF0000A4FF000094AE041F20002C4F204
:100650000102009F904208BF022704F00C030F2202
:100660009A402BEA020207FA03F34FEA9A051A436B
:1006700046F825204E6840F20C45F202DEF80820CC
:1006800054BF22EA080242EA0802C4F20105CEF889
:1006900008202A68B30254BF22EA080242EA08028C
:1006A0002A60B303DEF8042054BF22EA080242EABB
:1006B0000802F303CEF80420DEF800204FF0010317
:1006C00054BF22EA080242EA0802CEF800200E686F
:1006D0000AF1010A36FA0AF204F1040400F09480E7
:1006E00003FA0AFB16EA0B08F1D04E68664511DCE6
:1006F000122E51D8DFE806F0340A494650505050C7
:10070000505050505050505050424D00D1F80C9025
:1007100042E000BF4FF6FF72C1F2210296420FDCA9
:100720000022C1F2110296421AD00022C1F2120236
:10073000964215D00022C1F22102964210D02BE041
:100740000022C1F2220296420AD00022C1F23102F6
:10075000964205D00022C1F2320296421CD100BF5F
:100760008A6842B1012A14BFC0F814B0C0F810B0B2
:100770004FF0080910E04FF004090DE0CA6802F1DB
:10078000040909E04FF0000906E0CA6802F108090F
:1007900002E0CA6802F10C0902462646B8F5807FDD
:1007A00024BF0432203E17680F25B54027EA05050F
:1007B00009FA06F635431560CA79D2067FF587AF88
:1007C00041F21803C4F202031A68AEF57E7642F0D5
:1007D00001021A601A6802F001020192019A2AF0DD
:1007E000030256F802B040F60002C4F20102904241
:1007F00008D040F60042C4F2010290427FF425AFD7
:1008000001272AE7002728E702B0BDE8F08F0000A3
:10081000002A08BF090401617047000040F27C1003
:10082000C2F200000068704740F2040040F27C1100
:10083000C2F20000C2F2000100780A6810440860A9
:100840007047000080B542F20000C4F20200016867
:1008500041F010010160032000F090F80F2000F03B
:1008600005F800F02BF8002080BD0000B0B540F284
:100870000402C2F2000240F200011278C2F200014A
:100880004FF47A730968B3FBF2F20446B1FBF2F15C
:10089000084600F063FE0F2C4FF001050CD858B944
:1008A0004FF0FF3021460022002500F03BF840F2D7
:1008B0000800C2F2000004602846B0BD82B041F2D8
:1008C0001800C4F202000168022241F00101016037
:1008D000016801F0010101910199416841F08051E5
:1008E0004160406800F08050009000980420C4F2FD
:1008F0000100016862F31A61016002B070470000F4
:10090000002848BF704700F01F01012202FA01F1E0
:100910001C2202EAD0004EF20012CEF200028150F8
:100920007047000010B54EF60C5CCEF2000CDCF8FF
:100930000030C3F3022E8EF00704042C28BF0424D9
:10094000BEF103034FF0FF3E0EFA04F438BF00235C
:10095000A14399400EFA03F39A43114300F1604218
:1009600000F00F03090102F56442043B63440028D0
:1009700048BF03F10C02117010BD00004EF60C517F
:10098000CEF200010A684FF6FF031A4060F30A2214
:1009900042F0806040F0FD7008607047002804BF9E
:1009A000012070472DE9F04381B042F20008C4F203
:1009B00002080446D8F800000D4600F007008842FF
:1009C0000CD2D8F8000020F007002843C8F8000037
:1009D000D8F8000000F00700A8426BD1206841F26F
:1009E00004098107C4F2020917D5410705D5D9F8D2
:1009F000001041F4E061C9F80010010705D5D9F8ED
:100A0000001041F46051C9F80010D9F80010A26834
:100A100021F0F0011143C9F80010C00741D1D8F806
:100A2000000000F00700A8420CD9D8F8000020F020
:100A300007002843C8F80000D8F8000000F00700BD
:100A4000A84237D12068410707D5D9F80010E268DD
:100A500021F4E0611143C9F80010000708D5D9F866
:100A60000000216920F4605040EAC100C9F800008C
:100A7000D9F8002002F00C00082841F20020C0F252
:100A80007A0049D142F2BA73C2F38341C0F600033F
:100A9000595CD20334D440F60010C0F23D00484304
:100AA0003AE0606859F8041C022807D0012824D1D4
:100AB000890305D4012001B0BDE8F0838901F9D58F
:100AC000D9F8001021F003010843C9F80000FFF72E
:100AD000A5FE064641F28837D9F80000616800F0AB
:100AE0000C00B0EB810F9AD0FFF798FE801BB84244
:100AF000F2D9032001B0BDE8F0838907DAD5DFE73A
:100B0000D9F8002042F2B873C2F34042C0F60003A5
:100B10009A5C4843B0FBF2F0D9F8001042F2A072A0
:100B2000C1F30311C0F60002515C40F2000220FA4A
:100B300001F140F20800C2F200000068C2F20002B7
:100B40001160FFF793FE002001B0BDE8F0830000C4
:100B500040F2000041F20401C2F20000C4F20201BE
:100B60000068096842F2B072C1F30221C0F60002C7
:100B7000515CC8407047000040F2000041F204019F
:100B8000C2F20000C4F202010068096842F2B072C9
:100B9000C1F3C221C0F60002515CC840704700009A
:100BA000002804BF012070472DE9F04182B00446BF
:100BB000007841F20006C007C4F2020647D0706810
:100BC00000F00C00042808D1306880033FD560682D
:100BD000E8BB012002B0BDE8F081706800F00C00B5
:100BE000082802D17068C003EED4656830682DB162
:100BF000B5F5A02F09D0B5F5803F0AD020F480309C
:100C00003060306820F4802005E040F480203060BF
:100C1000306840F480303060FFF700FE002D05465C
:100C200012D000BF3068800311D4FFF7F7FD401BDE
:100C30006428F7D916E100BFFFF7F0FD401B6428D8
:100C40004FF0030000F2D88030688003F4D420789D
:100C5000800719D5706810F00C0F07D0706800F08D
:100C60000C00082827D17068C00324D4306880079E
:100C700003D52069012840F0A6803068616920F022
:100C8000F80040EAC1003060207800074ED5A06926
:100C900038B30020C4F242200121C0F88014FFF7CD
:100CA000BDFD0546706A80072DD4FFF7B7FD401BD8
:100CB0000228F7D9D6E02069002840F20000C4F2EB
:100CC000422000F0A88001210160FFF7A7FD054642
:100CD00030688007D1D4FFF7A1FD401B0228F7D967
:100CE000C0E00020C4F242200021C0F88014FFF7C9
:100CF00095FD0546706A800718D5FFF78FFD401BEC
:100D00000228F7D9AEE040F20000C2F2000000680D
:100D100044F6D351C1F26201A0FB0101480A0190DF
:100D200000BF0198411E00280191F9D120784007A9
:100D300017D4E5698DB1706800F00C00082846D121
:100D4000012D40D07068216A00F480328A423AD185
:100D5000616A00F47010884235D1002002B0BDE80D
:100D6000F081F0695FEAC00808D4F06940F0805073
:100D7000F061F06900F080500090009847F20007A1
:100D8000C4F200073868C0050FD4386840F480709A
:100D90003860FFF743FD05463868C00505D4FFF706
:100DA0003DFD401B6428F7D95CE0E568306A1DB161
:100DB000052D41D0012D43D020F001003062306A72
:100DC00020F004003EE0012002B0BDE8F0810027E1
:100DD000C4F2422700203866FFF720FD022D0546A9
:100DE0000ED100BF3068800153D5FFF717FD401BBF
:100DF00002284FF00300F5D902B0BDE8F08100BF32
:100E000030688001A9D5FFF709FD401B02284FF08B
:100E10000300F5D9F0E700210160FFF7FFFC05466C
:100E2000306880077FF530AFFFF7F8FC401B0228E1
:100E30004FF00300F4D9DFE740F004003062306A7D
:100E400040F001003062FFF7E9FC002D054641F259
:100E5000883712D0306A800712D4FFF7DFFC401BBE
:100E6000B842F7D9032002B0BDE8F081FFF7D6FC05
:100E7000401BB8424FF00300BED8306A8007F5D45B
:100E8000B8F1000F3FF555AFF06920F08050F061E8
:100E90004FE7206AB0F5803F05D17168A26821F460
:100EA0000031114371607168626A21F47411114359
:100EB0000843706001203866FFF7B0FC044600BFAD
:100EC000306880013FF549AFFFF7A8FC001B0228FE
:100ED0004FF00300F4D98FE790F8510070470000FD
:100EE00070B528B1416A29B100210161142106E0E1
:100EF000012070BD4168B1F5827F02D01C21002223
:100F000042500026866290F8511029B980F850604E
:100F1000054600F039F82846022180F8511090E883
:100F20002E0002F482720C6803F4044324F040049F
:100F30000C601A4405F4006305691A4405F00203C5
:100F400045691A4405F001038569C4691A4405F42A
:100F500000731A4404F03803046A1A4404F080034E
:100F6000846A1A4304F400531A430A60042202EA12
:100F700015424A60CA6922F40062CA6101214665CD
:100F800080F85110304670BD70B586B040F6000450
:100F9000C4F20104006804F5205100268842059639
:100FA000CDE90366029601D006B070BD41F218008B
:100FB000C4F20200016802AD41F480510160016891
:100FC00001F4805101910199016841F0040101602F
:100FD0000068294600F0040001900198A0200290CA
:100FE00002200390032005902046FFF70FFB4020CE
:100FF000CDE90206204629460496FFF707FB06B016
:1010000070BD00002DE9F04182B0044690F8510017
:10101000012818D160681D4617460E46B0F5827F3C
:1010200001D1A06898B1FFF7F9FB8046002E4FF080
:10103000010018BF002F02D102B0BDE8F08194F882
:101040005000012810D1022002B0BDE8F081042038
:1010500084F851002046314632463B46009500F068
:1010600071F902B0BDE8F081012084F8500004203D
:1010700084F8510000206065A663A787E787206396
:10108000A086E086A1682064B1F5004F606408D1B5
:101090002068016821F040010160016821F480416D
:1010A000016020680168490603D4016841F04001ED
:1010B0000160E168E08FD1B1E8B36E1C0AE000BFC7
:1010C000C068A16B21F8020BA163E08F0138E087B3
:1010D000E08F80B320688168C907F1D1FFF79EFBDC
:1010E000002EF5D0A0EB0800A842F1D319E010B310
:1010F0006E1C0AE0007BA16B0870A06B0130A0633E
:10110000E08F0138E087E08FA8B120688168C907C7
:10111000F0D1FFF783FB002EF5D0A0EB0800A8422A
:10112000F1D3012084F85100002084F850000320FE
:1011300002B0BDE8F0816068B0F5827F11D1A0688F
:10114000B0F5004F02D0B0F5806F0AD12168B0F53C
:10115000806F0A6822F040020A6002D12046012115
:1011600001E02046802100222B46CDF8008000F0CF
:1011700095FF28B1606D40F020006065202060651B
:10118000012084F85100002084F85000606D002890
:1011900018BF012002B0BDE8F08100002DE9F04148
:1011A00082B01D4616460F460446FFF737FB94F8FB
:1011B000511001290DD18046002F4FF0010018BFBA
:1011C000002E02D102B0BDE8F08194F85000012851
:1011D00003D1022002B0BDE8F081012084F8500064
:1011E000032084F85100002060652763A686E68608
:1011F000A063A087E087A168C4E91000B1F5004FA3
:1012000008D12068016821F040010160016841F4C3
:101210008041016020680168490603D4016841F0FB
:10122000400101606168731EE268B1FA81F1B3FAAE
:1012300083F349095B09B2F5006F41EA030124D148
:1012400031B137F8021BC1602763E08E0138E086B8
:10125000E08E002847D06E1C0AE000BF216B31F8F9
:10126000022BC2602163E08E0138E086E08ED0B3AD
:10127000206881688907F1D4FFF7D0FA002EF5D0F5
:10128000A0EB0800A842F1D323E039B1397801730B
:10129000206B01302063E08E0138E086E08E10B3D1
:1012A0006E1C0AE0216B09780173206B013020630A
:1012B000E08E0138E086E08EA8B120688168890759
:1012C000F0D4FFF7ABFA002EF5D0A0EB0800A8424F
:1012D000F1D3012084F85100002084F8500003204D
:1012E00002B0BDE8F0812046022101222B46CDF854
:1012F000008000F0D3FE40B92046802100222B461A
:10130000CDF8008000F0CAFE28B1606D40F02000EA
:10131000606520206065A06838B9002001902068D1
:10132000C1680191806801900198012084F8510002
:10133000002084F85000606D002818BF012002B022
:10134000BDE8F0812DE9F04383B01E4615460F46F7
:101350000446FFF763FA94F851108146012908D139
:10136000002F4FF0010018BF002D0ED103B0BDE8D3
:10137000F0836068B0F5827F0DD104294FF0020040
:10138000F4D1A1680029EBD0F0E7002EEED094F85C
:101390005000012803D1022003B0BDE8F0830120F2
:1013A00084F8500094F85100002104281CBF052047
:1013B00084F851006165A563E687A6872763E68602
:1013C0002068A686216461640168490603D4016827
:1013D00041F0400101606168731EE268B1FA81F179
:1013E000B3FA83F3DDF8288049095B09B2F5006F91
:1013F00041EA030137D131B137F8021BC1602763DD
:10140000E08E0138E086012608F10105E08E10B972
:10141000E08F00286CD02068816889070CD5E18EA8
:1014200051B1012E08D1216B002631F8022BC26088
:101430002163E18E0139E1868168C9070AD0E18F15
:1014400041B1C068A16B012621F8020BA163E08FB6
:101450000138E087FFF7E2F9002DD7D0A0EB0900B3
:101460004045D3D33AE039B139780173206B01306C
:101470002063E08E0138E086012608F1010500BFF7
:10148000E08E08B9E08F98B32068816889070DD590
:10149000E18E59B1012E09D1216B00260978017323
:1014A000206B01302063E08E0138E086206881687F
:1014B000C9070BD0E18F49B1C068A16B0126087044
:1014C000A06B0130A063E08F0138E087FFF7A6F939
:1014D000002DD5D0A0EB09004045D1D3012084F8E0
:1014E0005100002084F85000032003B0BDE8F083D1
:1014F0002046022101224346CDF8009000F0CEFDA7
:1015000040B92046802100224346CDF8009000F0EB
:10151000C5FD60B1606D40F0200060652020606511
:10152000002084F85000012003B0BDE8F083A068DB
:1015300038B9002002902068C1680291806802904A
:101540000298012084F85100002084F85000606D5A
:10155000002818BF012003B0BDE8F083411E002021
:10156000B0EB116F1CBF012070474EF21002CEF29B
:10157000000251604EF62351CEF20001F0230B70B1
:1015800007219060116070477047000070470000AD
:10159000B0B582B001680A68CC684B6902F02F05CB
:1015A000202D04F0200505D125B102B0BDE8B040E2
:1015B00000F0F0BD5FEA027C1EBF03F0010E04F4F0
:1015C000907313EB0E0340D1036BD50618D5012B96
:1015D00016D114F0100313D0002201920A68019270
:1015E0004A680192019A4969490647D4818DC28DA2
:1015F000C38D002B18BF914240F0108102B0B0BDE6
:1016000013062AD514F0800327D090F84120212A10
:10161000F4D18268B2F5805F03D10269002A00F03C
:101620003081026A531C036212784A60C28C013A0C
:101630001304C284E2D1C86820F08000C860C86882
:1016400040F04000C86002B0B0BDD10718BF14F42C
:1016500080715CD1510760D466E05206CED514F09B
:101660004002CBD0CA6822F04002CA60202180F834
:10167000411002B0BDE8B04000F0AEBAC16B0A68DC
:10168000526893B2002BB9D0858DAB42B6D2C285D9
:101690008969202934D000BF016851E8031F02681E
:1016A00021F4807142E80313002BF5D1016851E861
:1016B000051F026821F0010142E80513002BF5D156
:1016C000016851E8051F026821F0400142E8051356
:1016D000002BF5D1202180F842100021016300BFCA
:1016E000016851E8031F026821F0100142E803136A
:1016F000002BF5D1C16B04460846FEF7F9FE2046E3
:1017000002214163818DC28D891A89B2AFE0416C9B
:1017100041F001014164510706D5BEF1000F03D02D
:10172000416C41F002014164910706D5BEF1000F02
:1017300003D0416C41F004014164BCF1000F06D5B7
:101740005EEA050103D0416C41F008014164416C3F
:1017500000293FF453AF910604D51DB1044600F0B3
:1017600019FD204601684969426C01F0400102F010
:10177000080289184BD000BF016851E8031F0268B6
:1017800021F4907142E80313002BF5D1016851E870
:10179000051F026821F0010142E80513002BF5D175
:1017A000016B01290AD100BF016851E8031F0268DB
:1017B00021F0100142E80313002BF5D1202180F81D
:1017C00042100021016301684969490654D500BFF0
:1017D000016851E8051F026821F0400142E8051345
:1017E000002BF5D1C16B002946D042F28912C0F618
:1017F0000002044608464A63FEF79AFE00283FF4BA
:10180000FDAEE06B416B02B0BDE8B0400847044656
:10181000FFF7BCFE0020606402B0B0BD891A00BFB3
:10182000026852E8032F036822F4907243E803250C
:10183000002DF5D1026852E8052F036822F001025D
:1018400043E80525002DF5D1202280F84220002212
:10185000026300BF026852E8032F036822F01002FF
:1018600043E80325002DF5D1022289B2426302B07C
:10187000BDE8B040FFF788BE02B0BDE8B040FFF75A
:1018800085BE026A32F8023B6FF35F234B6002624F
:10189000CCE60000002804BF0120704710B50446C4
:1018A00090F8410028B9002084F84000204600F05C
:1018B00061F8242084F841002068D4E90212C3684A
:1018C00023F40053C360036923F440531A430261B5
:1018D000D4E904231143C268194341F20C639A43CB
:1018E0001143C1604169A26921F44071114343F67B
:1018F0000002C4F201029042416102D0FFF728F9D0
:1019000001E0FFF739F9D4E9002319214843990090
:10191000B0FBF1F048F21F5CC5F2EB1CA0FB0C31F0
:101920004FF69C734909C0F6FF7301FB0300322395
:1019300003EB0010A0FB0C03F02000EA531000EBB7
:101940000110C3F34311084490601069202120F472
:1019500090401061506920F02A005061D06840F436
:101960000050D0600020606484F8411084F8421078
:10197000606310BD70B586B040F60004C4F2010487
:10198000006804F54051002688420596CDE90366BB
:10199000029601D006B070BD41F21800C4F20200F8
:1019A000016802AD41F480410160016801F48041A9
:1019B00001910199016841F0040101600068294624
:1019C00000F00400019001984FF400700290022092
:1019D0000390032005902046FEF718FE4FF4806028
:1019E000CDE90206204629460496FEF70FFE252083
:1019F00000210022FEF796FF2520FEF781FF06B0AA
:101A000070BD000090F84230202B07D100294FF024
:101A1000010318BF002A04D1184670470223184654
:101A2000704700230363816222218285C28543645B
:101A300080F84210016921B10168CA6842F48072DD
:101A4000CA600068416941F001014161C16841F02B
:101A50002001C16018467047006843F60001C4F2D7
:101A60000101884218BF704740F25410C2F20000D2
:101A70000178D0F8012040F23C100139C2F2000098
:101A80000329026022D8DFE801F0021B080E00687B
:101A900040F27801C2F2000117E0006840F25C11E8
:101AA000C2F2000111E0006840F28401C2F20001BC
:101AB000086040F27000C2F200000121017005E0F0
:101AC000006840F27401C2F20001086040F2E400D4
:101AD00040F25411C2F20000C2F200010522FFF7E9
:101AE00091BF00002DE9F04381B0044690F8410019
:101AF000202809D1884600294FF0010018BF002A8C
:101B000006D101B0BDE8F083022001B0BDE8F0834A
:101B10000020606421201D4684F841001646FEF72F
:101B20007DFEA684E684A1680646B1F5805F02D1F9
:101B3000206900284DD0C1464FF00008E08C40B32A
:101B40006F1C0BE0B9F1000F1AD019F8010B2168D6
:101B50004860E08C0138E084E08CD0B120680068F7
:101B60000006EFD4002FF9D0FEF758FE01464FF0E3
:101B7000030045B3891BA94225D82068C068EDE75A
:101B800038F8020B21686FF35F2048604FF00009BE
:101B9000DFE720680068400614D46F1C04E000BF33
:101BA0002068006840060DD4002FF9D0FEF736FEFD
:101BB00001464FF0030035B1891BA94203D82068C4
:101BC000C068EDE70020202184F8411001B0BDE895
:101BD000F0834FF00009B1E770470000FEE7000016
:101BE000B0B582B040F60004C4F2010420461021D2
:101BF0000022FEF70DFE40F28C05B020C2F2000577
:101C00008DF806000DF10601284601220A23FFF790
:101C1000C5FA0DF10701284601220A23FFF7F2F960
:101C20009DF80750204610210122FEF7F1FD2846BD
:101C300002B0B0BDB0B540F60000C4F20100102102
:101C40000122FEF7E5FD40F28C040A25C2F20004F1
:101C50002046FFF741F901281CBF013D5FEA0561FD
:101C6000F6D10138B0FA80F04009B0BD2DE9F0415D
:101C700082B040F60008C4F2010815460F4604463B
:101C80004046102100221E46FEF7C2FD8DF8064098
:101C900040F28C04C2F200040DF10601204601223C
:101CA0000A23FFF77BFA2046394604220A23FFF76E
:101CB00075FA0DF10701204601220A238DF807501D
:101CC000FFF76CFA204631462A460A23FFF766FAE8
:101CD000404610210122FEF79BFD02B0BDE8F081D5
:101CE000F0B581B040F60007C4F2010714460D4676
:101CF0000646384610210022FEF78AFD8DF8036063
:101D000040F28C06C2F200060DF1030130460122BA
:101D10000A23FFF743FA3046294622460A23FFF7F3
:101D200071F9384610210122FEF772FD01B0F0BDB5
:101D3000B0B582B040F60004C4F201042046102180
:101D40000022FEF765FD40F28C05A020C2F20005DE
:101D50008DF806000DF10601284601220A23FFF73F
:101D60001DFA0DF10701284601220A23FFF74AF95F
:101D70009DF80750204610210122FEF749FD284614
:101D800002B0B0BDB0B582B040F60005C4F20105A6
:101D90000446284610210022FEF73AFD40F28C004E
:101DA000C2F200000DF1070101220A238DF807405D
:101DB000FFF7F4F9284610210122FEF729FD02B0B1
:101DC000B0BD000010B582B040F60004C4F20104BA
:101DD000204610210022FEF71BFDC0208DF80700D1
:101DE00040F28C00C2F200000DF1070101220A232B
:101DF000FFF7D4F9204610210122FEF709FD02B0B9
:101E000010BD00002DE9F04F83B040F60004C4F28D
:101E10000104204610210022FEF7FAFC40F28C0556
:101E20000220C2F200058DF806000DF106012846D9
:101E300001220A230A27FFF7B1F90F208DF80700C6
:101E40000DF10701284601220A23FFF7A7F9802098
:101E50008DF8080002A9284601220A23FFF79EF9FF
:101E6000204610210122FEF7D3FC0DF109084FF0A6
:101E70000E0B0DF10A090DF10B0600BF20461021D3
:101E80000022FEF7C5FC03208DF8090028464146D4
:101E900001220A23FFF782F92846494601220A2334
:101EA0008DF80AB0FFF77AF92846314601220A2355
:101EB000FFF7A8F89DF80BA0204610210122FEF79D
:101EC000A7FC0AF0E00080281CBF013F5FEA076121
:101ED000D4D18038B0FA80F0400903B0BDE8F08F6B
:101EE0002DE9F04F83B040F60004C4F2010420460F
:101EF000102100220026FEF78BFC40F28C05022008
:101F0000C2F200058DF806000DF1060128460122F7
:101F10000A230A27FFF742F90F208DF807000DF179
:101F20000701284601220A23FFF738F902A92846AB
:101F300001220A238DF80860FFF730F920461021AE
:101F40000122FEF765FC0DF109084FF00E0B0DF1B3
:101F50000A090DF10B0600BF204610210022FEF7F2
:101F600057FC03208DF809002846414601220A2328
:101F7000FFF714F92846494601220A238DF80AB0D2
:101F8000FFF70CF92846314601220A23FFF73AF8F9
:101F90009DF80BA0204610210122FEF739FCBAF172
:101FA000200F02D3013F3806D6D10020BAF1200F0E
:101FB00038BF012003B0BDE8F08F0000F0B581B05C
:101FC00040F60004C4F201040D46064620461021E6
:101FD0000022FEF71DFC40F28C070220C2F200072F
:101FE0008DF801000DF10101384601220A23FFF7A7
:101FF000D5F80DF10201384601220A238DF802605E
:10200000FFF7CCF80DF10301384601220A238DF8C1
:102010000350FFF7C3F8204610210122FEF7F8FB1A
:1020200001B0F0BD2DE9F04182B040F60008C4F2E5
:10203000010815460E460746404610210022FEF7CD
:10204000E7FB40F28C040220C2F200048DF8060087
:102050000DF10601204601220A23FFF79FF80DF13A
:102060000701204601220A238DF80770FFF796F832
:10207000F01B0130C2B2204629460A23FFF78EF832
:10208000404610210122FEF7C3FB02B0BDE8F081FB
:10209000FEE70000FEE70000704700002DE9F04772
:1020A00082B00A9C984615460E468146FEF7B6FB5E
:1020B000201A00EB0804FEF7B1FB40F20001C2F267
:1020C00000010968C1F3CB3161430191D9F80010D7
:1020D00089683140891BB1FA81F14909A94203D1CC
:1020E000002002B0BDE8F087824608F1010709E050
:1020F000D9F8000080683040801BB0FA80F04009B9
:10210000A842EDD0002FF3D0FEF788FBA0EB0A0029
:10211000A04207D201980199002808BF0446481E32
:102120000190E5E7D9E900014268B1F5827F22F02C
:10213000E00242600BD1D9F80810B1F5004F02D08F
:10214000B1F5806F03D1016821F040010160D9F839
:102150002810B1F5005F07D1016821F4005101603A
:10216000016841F400510160012089F8510000200C
:1021700089F85000032002B0BDE8F08770470000E6
:10218000FEF752BB70470000406A0021C185C18440
:10219000FFF7FCB990F84210222918BF70478268F7
:1021A000B2F5805F02D1016900294AD0816AB2F597
:1021B000805F07D00AB9026922B10268526802F052
:1021C0007F0201E0026852680A70816A013181620F
:1021D000C18D01390A04C18500D070470168CA6801
:1021E00022F02002CA60CA6822F48072CA604A697A
:1021F00022F001024A61202180F84210002141634F
:10220000026B012A18BFFFF727BC81B0016300BF32
:10221000016851E8031F026821F0100142E803132E
:10222000002BF5D101680A68D20606D5002200927B
:102230000A680092496800910099818D01B0FFF70A
:10224000A3B90168826A49686FF35F2122F8021B13
:102250008262BDE740F2E400C2F20000FFF798B9E5
:10226000FEE7000090B0FEF7EDFA06AC204628210C
:10227000FDF7C0FF012006900A904FF4E010002502
:102280004FF4803102260F9020460595CDE9035585
:10229000CDE90155CDE90715CDE90D61FEF780FCCB
:1022A00018B1EFF3108072B6FEE70F20CDE90106FA
:1022B0004FF48060CDE9040501A802210395FEF7E3
:1022C0006DFB20B1EFF3108072B600BFFEE7002572
:1022D00041F21800CDE90855CDE90655C4F20200D7
:1022E000016840F6000441F0200101600168C4F279
:1022F000010401F02001019101990168002241F0DF
:10230000040101600068102100F0040001900198B0
:1023100020461026FEF77CFA0120CDE907050220B1
:10232000099006A920460696FEF770F940F28C0047
:1023300004F52051C2F200004FF482724FF4007392
:1023400080E826000A21C0E90355C0E90553C661AB
:10235000C0E90855C0E90A51FEF7C2FD18B1EFF314
:10236000108072B6FEE740F2E40004F54051C2F27C
:1023700000000C234FF4E13280E82600C0E9035549
:10238000C0E90535C561FFF785FA20B1EFF310808C
:1023900072B600BFFEE740F2E40040F25411C2F210
:1023A0000000C2F200010522FFF72CFBFFF70AFD37
:1023B000FDF786FF40F2780440F2681540F2740A97
:1023C00040F2840840F2700940F2401640F2381B97
:1023D000C2F20004C2F20005C2F2000AC2F2000812
:1023E000C2F20009C2F20006C2F2000B03E000BF15
:1023F0000A20FEF7F7F840F23411C2F2000120681B
:10240000096800F0B5F848B140F23011C2F200019D
:10241000DAF80000096800F0ABF8F0B940F21110EA
:102420006860082028722068DAF80010C5F80900F2
:102430002846C5F80D10FDF7E9FF206840F2341278
:10244000C2F20002DAF80010106040F23010C2F25E
:10245000000001600520FEF7C5F8D8F80000DBF8A1
:10246000001000F085F84FF0040788B94FF48B7026
:102470006860D8F800002F72C5F809002846FDF7FB
:10248000C5FFD8F80000CBF800000520FEF7AAF839
:102490004FF48970686040F25C10C2F2000000687E
:1024A0002F72C5F809002846FDF7B0FF0520FEF79A
:1024B00099F899F80000D0B140F2800040F27C0118
:1024C000C2F20000C2F20001006809680822CDE9EA
:1024D000060140F2E400C2F2000006A96423FFF7FF
:1024E00001FB002089F800000520FEF77BF830464C
:1024F000FDF740FF00283FF47EAF7168307AB1F5F8
:10250000887F08BF08280DD1D6F8092040F280073F
:10251000C2F20007D6F80D303A6040F27C02C2F2F7
:102520000002136040F21513994299F8002008BF89
:10253000002A7FF45DAF08287FF45AAFD6F809006F
:1025400040F26012D6F80D10C2F20002106040F2A4
:102550006412C2F20002CDE9060140F2E40011600B
:10256000C2F2000006A908226423FFF7BBFA3FE786
:1025700010B500F033F80CBF0120002010BD10B5DD
:1025800000F02CF814BF0120002010BD10B500F0A1
:1025900059F88CBF0120002010BD10B500F052F892
:1025A0002CBF0120002010BD10B500F07FF894BFB3
:1025B0000120002010BD10B500F078F834BF0120D4
:1025C000002010BD401058BFC0F14040491058BF16
:1025D000C1F140418142EFF30080704750EA010CA5
:1025E00000F113801CF5000F58BFBCF5000F01D49B
:1025F0008842704707D710F5000F58BF11F5000F3C
:1026000015D488427047894270471CF5000F04D5E5
:10261000BCF5000FF7D5814270474FF0807C1CEB72
:10262000400F38BF1CEB410F01D28142704710B5FB
:1026300000F070F8922449004FF000504FF08051A4
:10264000FFF7C0BF50EA010C00F113801CF5000F2A
:1026500058BFBCF5000F01D48842704707D710F56A
:10266000000F58BF11F5000F15D4884270478942FA
:1026700070471CF5000F04D5BCF5000FF7D581425B
:1026800070474FF0807C1CEB400F38BF1CEB410FB4
:1026900001D28142704710B500F03CF89224490005
:1026A0004FF080504FF00051FFF78CBF50EA010C03
:1026B00000F113801CF5000F58BFBCF5000F01D4CA
:1026C0008842704707D710F5000F58BF11F5000F6B
:1026D00015D488427047894270471CF5000F04D515
:1026E000BCF5000FF7D5814270474FF0807C1CEBA2
:1026F000400F38BF1CEB410F01D28142704710B52B
:1027000000F008F8922449004FF000504FF080513B
:10271000FFF758BF0EF1020E2EF0030E5EF8044BC9
:10272000244204D44FEA4102B2F17F4F11D84FEA5C
:102730004003B3F17F4F0CD80ED14FEAD07C0CEBA5
:102740004C0C0CF1020CB2F17F4F08BF4CEBD17C6A
:1027500004E04FF0080C01E04FEAD17C0CEB4C0395
:1027600024FA03F404F00704B4F1040C06D20EEBCF
:10277000840CBDE810404CF0010C6047DFE80CF021
:10278000070802024FF00040A0F5800010BD084687
:10279000420018BFD2F1807288BF00F0004010BD27
:1027A0000000000000000000010203040607080901
:1027B00000000000010203040102020304050607F1
:1027C00008090A0B0C0D0E0F10100000F02700086E
:1027D0000000002010000000500100080028000840
:1027E00010000020700700007001000800000000C9
:1027F00000127A000100000010000000000000003C
:04000005080000ED02
:00000001FF
