:020000040800F2
:1000000038070020B501000895220008DD1D000812
:1000100091220008A10300081D2400080000000030
:100020000000000000000000000000007D23000828
:10003000D105000800000000992200088123000873
:10004000CF010008CF010008CF010008CF01000850
:10005000CF010008CF010008CF010008CF01000840
:10006000CF010008CF010008CF010008CF01000830
:10007000CF010008CF010008CF010008CF01000820
:10008000CF010008CF010008CF010008CF01000810
:10009000CF010008CF010008CF010008CF01000800
:1000A000CF010008CF010008CF010008CF010008F0
:1000B000CF010008CF010008CF010008CF010008E0
:1000C000CF010008CF010008CF010008CF010008D0
:1000D000CF010008CF010008CF010008CF010008C0
:1000E000CF010008CF010008CF01000800F002F89E
:1000F00000F050F814A696E8000CB244B344DA4578
:1001000001D100F047F8BAE80F000FA696E83000DA
:10011000A5EB040504EB0607AAEB0704A7F101070A
:100120004FEA15154FEA3414A4F10104AC4201D38F
:1001300000F030F813F0010F18BFFB1A43F0010371
:1001400000F001F8DBE718473425000054250000D3
:10015000103A24BF78C878C1FAD8520724BF30C8F3
:1001600030C144BF04680C60704700007047000055
:100170000023002400250026103A28BF78C1FBD8B0
:10018000520728BF30C148BF0B6070471FB51FBD65
:1001900010B510BD00F058F81146FFF7F7FF02F058
:1001A0003FF900F076F803B4FFF7F2FF03BC00F06C
:1001B0007DF800000948804709480047FEE7FEE750
:1001C000FEE7FEE7FEE7FEE7FEE7FEE7FEE7FEE707
:1001D00004480549054A064B7047000019240008E9
:1001E000ED00000838010020380700203803002007
:1001F000380300204FF0000200B51346944696469F
:10020000203922BFA0E80C50A0E80C50B1F1200129
:10021000BFF4F7AF090728BFA0E80C5048BF0CC0D7
:100220005DF804EB890028BF40F8042B08BF704735
:1002300048BF20F8022B11F0804F18BF00F8012BA7
:100240007047704770477047754600F02BF8AE4610
:1002500005006946534620F00700854618B020B5D2
:10026000FFF7B6FFBDE820404FF000064FF0000753
:100270004FF000084FF0000BAC46ACE8C009ACE80A
:10028000C009ACE8C009ACE8C00921F007018D46FF
:10029000704710B50446AFF300802046BDE810401B
:1002A000FFF781BF00487047100000200149182067
:1002B000ABBEFEE72600020070470000B0B5044662
:1002C00000688168C90709D0816821F00101816057
:1002D00000F0F6FD21688968C90701D10020B0BD92
:1002E000054603E020688068C007F7D000F0E8FD0D
:1002F000401B0328F6D320688068C007F2D0A06AAC
:1003000040F01000A062E06A40F00100E0620120CD
:10031000B0BD0000B0B582B0044600200190216855
:100320008A68D2073AD1886840F00100886040F2BC
:100330000000C2F2000000684DF68361C4F21B3178
:10034000A0FB0101880C00BF0190019810B1019839
:100350000138F9E700F0B4FD21688968C9071CD1AC
:10036000054603E020688068C00716D100F0A8FDAC
:10037000401B0328F6D320688068C007F2D1A06A2A
:1003800040F01000A062E06A40F00100E06200204E
:1003900084F82400012002B0B0BD002002B0B0BD3E
:1003A000FEE7000010B588B000244FF40060CDE9EE
:1003B0000044079406900594CDE90344029001F0AF
:1003C00039FD002844D001F01DFE00283FD001AACD
:1003D0002020232101F026FF6A462420272101F056
:1003E00021FF07AA0020032101F01CFF06AA042018
:1003F000072101F017FF05AA08200B2101F012FFC9
:1004000004AA1020132101F00DFF03AA14201721C4
:1004100001F008FF02AA18201B2101F003FF602051
:10042000042101F0CBFE7020012101F0C7FE2A203B
:10043000012101F0C3FE2920B12101F0BFFE2820D7
:10044000852101F0BBFE01F04BFE044600E00024D4
:10045000204608B010BD0000B0B584B0044601F0DD
:10046000BFFC402802D2002004B0B0BD410606D433
:1004700041B2B1F1FF3F0ADC0546942001E0054698
:1004800090200DF103010D2201F02AFD284600F015
:100490001800102815D19DF804209DF803101C2386
:1004A00002F0030503EAD20242EA411102209DF85C
:1004B00005C0294420709DF80600090441EA0C217A
:1004C00007E0012020709DF803009DF80420C10082
:1004D000500908439DF80710606021720298039943
:1004E000C4F80900C4F80D10012004B0B0BD00002C
:1004F00070B540F2FC040546C2F200040020206002
:1005000001F016FD40F27001C2F2000142070870CE
:1005100010D42978686802291FD101BA090CE02299
:100520006180C0F3014102EA503211440831617028
:10053000410D18E0C10619D42978686802292AD12A
:1005400001BA090CE0226180C0F3014102EA503295
:10055000114408316170410D23E0002161804101A7
:100560006170C0F3D7018126402025E0400644BFDA
:10057000002070BD29786868022915D101BA090CDC
:10058000E0226180C0F3014102EA50321144083197
:100590006170410D0EE00021618041016170C0F386
:1005A000D7018226422007E000216180410161706D
:1005B000C0F3D701842644202A7A217005F109036B
:1005C000214601F053FC304601F0DCFC012070BDF7
:1005D0007047000070B582B004460020019094F886
:1005E0002400012802D1022002B070BD012084F84D
:1005F00024002046FFF762FE2046FFF78BFE00280E
:1006000059D10646A06A41F2021188430230A06225
:1006100040F20000C2F200000568022000F0FEFC7B
:10062000B5FBF0F0400000BF0190019810B10198B7
:100630000138F9E72068816841F00801816000F025
:100640003FFC21688A6812070ED4886840F00400D5
:10065000886000F035FC21688968490714D40121BD
:100660006FF00302304622E0054603E02168886807
:100670000007EAD500F024FC401B0B28F6D32068C5
:1006800080680007F2D50EE0054603E02068806828
:100690004007E4D500F014FC401B0B28F6D320687B
:1006A00080684007F2D5012010216FF01202A36A82
:1006B0001A401143A162002184F8241002B070BDD9
:1006C000B0B581B00022009290F82420012A01D117
:1006D000022179E04A680123062A02EB820C80F8A5
:1006E000243005D8026802F1340E6FF004020AE0EB
:1006F00003680C2A87BF03F12C0E6FF0400203F150
:10070000300E6FF022026244DEF800C01F230C6836
:1007100093402CEA030304FA02F21A43CEF80020B5
:10072000D1F800E002680EEB4E041023BEF1090F71
:1007300088BF1E3C88BF0C2352F803C00725896878
:10074000A5402CEA0505A1402943D1502EF0010116
:100750004FF0000C10294FF0000133D1016842F234
:100760000042C4F20102914205D0816A41F02001A9
:100770008162012126E09268120222D48A68BEF1C9
:10078000100F42F400028A601BD140F20001C2F255
:10079000000109684DF68362C4F21B32A1FB02120C
:1007A000910C01EB810149000091009949B100BF12
:1007B000009901390091009900294FF00001F7D10B
:1007C00000E0002180F824C0084601B0B0BD000060
:1007D0000068C06C70470000002804BF012070470B
:1007E000B0B50446806A30B90020E06284F8240085
:1007F000204600F09DF820688168C90709D081680B
:1008000021F00101816000F05BFB21688968C90764
:1008100030D100200121A36AA26A31B313F0100184
:1008200023D141F2021122EA01010231A162E16900
:10083000D4E9012541EA020C6A1EB2FA82F2530998
:100840002A46B5F5807F18BF1A02217D237B012936
:100850004CEA430C2DD13BB3A36A43F02003A362BF
:10086000E36A43F00103E36223E042F01000A06278
:100870000120B0BD054603E020688068C007C8D0ED
:1008800000F01EFB401B0328F6D320688068C007D9
:10089000F2D0A06A002140F01000A062E06A40F0AF
:1008A0000100E0620120B6E7A36902EB4332A2F542
:1008B000C0522368B5F5807F596821F4694141EA47
:1008C0000201596099684FF2FD72CFF6E17201EAB8
:1008D000020141EA0C01996001D0012D06D1216984
:1008E0000022CFF6F07202EB015200E00022D96A3A
:1008F00021F470011143D962996840F6FE62CFF687
:100900001F721140614507D10021E162A16A0122F5
:1009100062F30101A162B0BDA06A40F0100020F0B6
:100920000200A062E06A40F00100E0620120B0BD78
:1009300080B586B0014640F60000C4F201000968A7
:1009400000F5005291424FF00001CDE90411CDE9CC
:10095000021101D006B080BD41F21801C4F20201BB
:100960000A6842F480620A600A6802F480620192B6
:10097000019A0A6842F004020A60096801F0040161
:10098000019101990321CDE9021102A900F090F92A
:1009900006B080BD2DE9F04182B000260D46044628
:1009A000019600F08DFA21688A68D2053CD4804611
:1009B0004868C00503D4C86A10F4700F3ED040F2F6
:1009C0000000C2F20000076842F292460220C1F223
:1009D000492600F023FB216844F624130A69B7FB7B
:1009E000F0F0C2F292431A4206D1CA6844F62413C8
:1009F000C0F292031A423AD00A69324206D1CA685A
:100A000042F29243C0F249031A423ED00A6949F2C7
:100A10004923C0F224031A424FF0FC0236D1C968C0
:100A2000194208BF542231E0A06A40F02000A062C1
:100A300084F82460012002B0BDE8F08120680068DD
:100A400080073FD46E1C07E020680068800758D5F7
:100A500020680068800735D4002EF9D0002DF3D02F
:100A600000F02EFAA0EB0800A842EDD8F0E70A69E2
:100A700032424FF0290209D1C96842F29243C0F2D2
:100A80004903194208BF142200E05422019902FBD5
:100A900000F7B94216D26E1C09E000BF0198B842B7
:100AA0002FD30198013001900198B8420AD2002E4C
:100AB000F7D0002DF2D000F003FAA0EB0800A84216
:100AC000ECD8EEE720686FF012010160A16A41F4F2
:100AD0000071A162806800F46020B0F5602F0CD135
:100AE000207B50B9A06A20F48070A062A06AC00484
:100AF00003D4A06A40F00100A062002002B0BDE86B
:100B0000F081A06A40F00400A062002084F8240074
:100B1000032002B0BDE8F081B0B5044690F824008F
:100B2000012804BF0220B0BD012084F82400204623
:100B3000FFF7F0FB18B1002184F82410B0BD42F299
:100B4000044C2168A26AC4F2010C40F201339A43BA
:100B50000CF57F7502F58072A942A26228D0A26AC4
:100B600022F48012A2624A68520504D5A26A0123C7
:100B700063F30D32A262A26A4FF0000ED2044FF06E
:100B8000000244BFE26A22F00602E2626FF0020253
:100B900084F824E00A608A6802F46022B2F5602FCB
:100BA00026D1A9421FD08A6842F4A0028A60B0BD53
:100BB000DCF8002012F4702FD1D0A26A42F4801E1B
:100BC00042F60002C4F201029142C4F828E005D0C6
:100BD00042F20042C4F201029142CCD1DCF8002082
:100BE0005205C3D4C7E7DCF8002012F4702FDAD026
:100BF0008A6842F480128A60B0BD0000B0B5044635
:100C000090F82400012804BF0220B0BD0121206813
:100C100084F824108268D20702D1002069B912E05A
:100C2000816821F00101816000F04AF9216889683A
:100C3000C9070CD10020012129B1A16A41F201129A
:100C400091430131A162002184F82410B0BD054612
:100C500004E000BF20688068C007EBD000F030F9E6
:100C6000401B0328F6D320688068C007F2D0A06A32
:100C7000002140F01000A062E06A40F00100E06254
:100C800001200029D9D1DEE7B0B5044600F018F9FB
:100C9000054640F20400C2F200000078611C18BF53
:100CA000044400BF00F00CF9401BA042FAD3B0BDD1
:100CB0002DE9F04F82B00E68002E00F0F78041F26F
:100CC0000042C4F20102042340F2004E904208BFE9
:100CD00003234FF6FF7CC4F2010E0093002401238E
:100CE000C1F2100C4FF0000A4FF000094AE041F247
:100CF0000002C4F20102009F904208BF022704F0E4
:100D00000C030F229A402BEA020207FA03F34FEA80
:100D10009A051A4346F825204E6840F20C45F20227
:100D2000DEF8082054BF22EA080242EA0802C4F2B0
:100D30000105CEF808202A68B30254BF22EA08024F
:100D400042EA08022A60B303DEF8042054BF22EA14
:100D5000080242EA0802F303CEF80420DEF800207D
:100D60004FF0010354BF22EA080242EA0802CEF81B
:100D700000200E680AF1010A36FA0AF204F10404AE
:100D800000F0948003FA0AFB16EA0B08F1D04E68D3
:100D9000664511DC122E51D8DFE806F0340A4946C8
:100DA00050505050505050505050505050424D00A4
:100DB000D1F80C9042E000BF4FF6FF72C1F2210261
:100DC00096420FDC0022C1F2110296421AD0002294
:100DD000C1F21202964215D00022C1F221029642BF
:100DE00010D02BE00022C1F2220296420AD000224B
:100DF000C1F23102964205D00022C1F2320296427F
:100E00001CD100BF8A6842B1012A14BFC0F814B0D7
:100E1000C0F810B04FF0080910E04FF004090DE0E1
:100E2000CA6802F1040909E04FF0000906E0CA6847
:100E300002F1080902E0CA6802F10C0902462646DE
:100E4000B8F5807F24BF0432203E17680F25B540D7
:100E500027EA050509FA06F635431560CA79D20670
:100E60007FF587AF41F21803C4F202031A68AEF5AA
:100E70007E7642F001021A601A6802F001020192C5
:100E8000019A2AF0030256F802B040F60002C4F2BA
:100E90000102904208D040F60042C4F201029042A2
:100EA0007FF425AF01272AE7002728E702B0BDE835
:100EB000F08F0000002A08BF09040161704700009C
:100EC00040F23010C2F200000068704740F20400A7
:100ED00040F23011C2F20000C2F2000100780A684C
:100EE000104408607047000080B542F20000C4F270
:100EF0000200016841F010010160032000F07EF85B
:100F00000F2000F005F800F02BF8002080BD000055
:100F1000B0B540F20402C2F2000240F200011278C1
:100F2000C2F200014FF47A730968B3FBF2F204468F
:100F3000B1FBF2F1084600F03BFF0F2C4FF001052A
:100F40000CD858B94FF0FF3021460022002500F0A0
:100F500029F840F20800C2F2000004602846B0BD43
:100F600082B041F21800C4F202000168022241F08E
:100F700001010160016801F00101019101994168DD
:100F800041F080514160406800F08050009000982E
:100F90000420C4F20100016862F31A61016002B02A
:100FA0007047000010B54EF60C5CCEF2000CDCF879
:100FB0000030C3F3022E8EF00704042C28BF042453
:100FC000BEF103034FF0FF3E0EFA04F438BF0023D6
:100FD000A14399400EFA03F39A43114300F1604292
:100FE00000F00F03090102F56442043B634400284A
:100FF00048BF03F10C02117010BD00004EF60C51F9
:10100000CEF200010A684FF6FF031A4060F30A228D
:1010100042F0806040F0FD7008607047012820D0E9
:1010200002280CD0102808D141F20401C4F20201B8
:101030000A6851F8040CC0013ED40020704780B506
:1010400000F0C4F941F20401C4F20201096802226D
:10105000C1F3813102EB4101B0FBF1F0BDE880400A
:10106000704741F20400C4F20200C16940F202324A
:101070000A40B2F5817F04BF4FF40040704701F48D
:101080004071B1F5407F0FD0B1F5007F1CBF00204B
:101090007047026A920744BF49F640407047B1F575
:1010A000407F1CBF0020704750F8040C4FF22441D1
:1010B000800301EAE0707047C2F3834011A3185C1B
:1010C000D20305D440F60012C0F23D0250430BE0BB
:1010D0000A6810A3C2F340429A5C41F20023C0F2B6
:1010E0007A03B3FBF2F250430968490248BF7047E4
:1010F0004AF6AB214000CAF6AA21A0FB010148082C
:10110000704700BF02030405060708090A0B0C0D0F
:101110000E0F1010010200002DE9F04182B00446CC
:10112000007841F21C06C007C4F202064AD03068BB
:101130005FEAC00808D4306840F080503060306802
:1011400000F080500190019847F20007C4F20007B8
:101150003868C00512D4386840F480703860FFF7F2
:10116000AFFE05463868C00508D4FFF7A9FE401B4E
:101170006428F7D9032002B0BDE8F081706810F44C
:10118000407012D0616801F4407188420DD07068DF
:1011900040F24042C4F24222012320F44071136025
:1011A0000023C0071360716025D17068616820F466
:1011B00040700843B8F1000F706003D4306820F02D
:1011C000805030602068810707D556F8181CA26847
:1011D00021F44041114346F8181CC00607D556F8C3
:1011E000180CE16820F48000084346F8180C002031
:1011F00002B0BDE8F081FFF763FE054641F2883793
:1012000070688007D1D4FFF75BFE401BB8424FF0F7
:101210000300F5D9ECE70000002804BF0120704767
:101220002DE9F04381B042F20008C4F202080446FE
:10123000D8F800000D4600F0070088420CD2D8F81C
:10124000000020F007002843C8F80000D8F800008C
:1012500000F00700A8426BD1206841F20409810721
:10126000C4F2020917D5410705D5D9F8001041F499
:10127000E061C9F80010010705D5D9F8001041F464
:101280006051C9F80010D9F80010A26821F0F001EF
:101290001143C9F80010C00741D1D8F8000000F090
:1012A0000700A8420CD9D8F8000020F00700284316
:1012B000C8F80000D8F8000000F00700A84237D1B5
:1012C0002068410707D5D9F80010E26821F4E061F1
:1012D0001143C9F80010000708D5D9F800002169AA
:1012E00020F4605040EAC100C9F80000D9F800209D
:1012F00002F00C00082841F20020C0F27A0049D127
:1013000042F26C63C2F38341C0F60003595CD2031E
:1013100034D440F60010C0F23D0048433AE0606823
:1013200059F8041C022807D0012824D1890305D4C8
:10133000012001B0BDE8F0838901F9D5D9F800108A
:1013400021F003010843C9F80000FFF7B9FD064684
:1013500041F28837D9F80000616800F00C00B0EB6A
:10136000810F9AD0FFF7ACFD801BB842F2D9032061
:1013700001B0BDE8F0838907DAD5DFE7D9F80020AE
:1013800042F26A63C2F34042C0F600039A5C4843EB
:10139000B0FBF2F0D9F8001042F25262C1F303112F
:1013A000C0F60002515C40F2000220FA01F140F266
:1013B0000800C2F200000068C2F200021160FFF7EC
:1013C000A7FD002001B0BDE8F083000040F200005E
:1013D00041F20401C2F20000C4F20201006809688F
:1013E00042F26262C1F3C221C0F60002515CC84001
:1013F00070470000002804BF012070472DE9F0412C
:1014000082B00446007841F20006C007C4F202062A
:1014100047D0706800F00C00042808D130688003C1
:101420003FD56068E8BB012002B0BDE8F08170687C
:1014300000F00C00082802D17068C003EED4656883
:1014400030682DB1B5F5A02F09D0B5F5803F0AD091
:1014500020F480303060306820F4802005E040F4D3
:1014600080203060306840F480303060FFF728FD25
:10147000002D054612D000BF3068800311D4FFF75D
:101480001FFD401B6428F7D916E100BFFFF718FDC8
:10149000401B64284FF0030000F2D88030688003BE
:1014A000F4D42078800719D5706810F00C0F07D09D
:1014B000706800F00C00082827D17068C00324D49D
:1014C0003068800703D52069012840F0A680306885
:1014D000616920F0F80040EAC10030602078000720
:1014E0004ED5A06938B30020C4F242200121C0F8D3
:1014F0008014FFF7E5FC0546706A80072DD4FFF7DE
:10150000DFFC401B0228F7D9D6E02069002840F212
:101510000000C4F2422000F0A88001210160FFF722
:10152000CFFC054630688007D1D4FFF7C9FC401BCB
:101530000228F7D9C0E00020C4F242200021C0F800
:101540008014FFF7BDFC0546706A800718D5FFF7C9
:10155000B7FC401B0228F7D9AEE040F20000C2F20F
:101560000000006844F6D351C1F26201A0FB010102
:10157000480A019000BF0198411E00280191F9D14D
:101580002078400717D4E5698DB1706800F00C0031
:10159000082846D1012D40D07068216A00F48032BD
:1015A0008A423AD1616A00F47010884235D1002035
:1015B00002B0BDE8F081F0695FEAC00808D4F069C4
:1015C00040F08050F061F06900F080500090009889
:1015D00047F20007C4F200073868C0050FD4386826
:1015E00040F480703860FFF76BFC05463868C00532
:1015F00005D4FFF765FC401B6428F7D95CE0E5687B
:10160000306A1DB1052D41D0012D43D020F00100DD
:101610003062306A20F004003EE0012002B0BDE8F4
:10162000F0810027C4F2422700203866FFF748FC0B
:10163000022D05460ED100BF3068800153D5FFF75B
:101640003FFC401B02284FF00300F5D902B0BDE873
:10165000F08100BF30688001A9D5FFF731FC401B45
:1016600002284FF00300F5D9F0E700210160FFF7F1
:1016700027FC0546306880077FF530AFFFF720FC78
:10168000401B02284FF00300F4D9DFE740F00400CC
:101690003062306A40F001003062FFF711FC002D2B
:1016A000054641F2883712D0306A800712D4FFF71E
:1016B00007FC401BB842F7D9032002B0BDE8F08117
:1016C000FFF7FEFB401BB8424FF00300BED8306A64
:1016D0008007F5D4B8F1000F3FF555AFF06920F061
:1016E0008050F0614FE7206AB0F5803F05D1716806
:1016F000A26821F40031114371607168626A21F4BB
:10170000741111430843706001203866FFF7D8FB5D
:10171000044600BF306880013FF549AFFFF7D0FBBA
:10172000001B02284FF00300F4D98FE790F8510016
:101730007047000070B528B1416A29B100210161EC
:10174000142106E0012070BD4168B1F5827F02D00E
:101750001C21002242500026866290F8511029B9BF
:1017600080F85060054600F039F82846022180F8DC
:10177000511090E82E0002F482720C6803F40443C6
:1017800024F040040C601A4405F4006305691A440F
:1017900005F0020345691A4405F001038569C4692F
:1017A0001A4405F400731A4404F03803046A1A4416
:1017B00004F08003846A1A4304F400531A430A6055
:1017C000042202EA15424A60CA6922F40062CA6130
:1017D0000121466580F85110304670BD70B586B065
:1017E00040F60004C4F20104006804F5205100260C
:1017F00088420596CDE90366029601D006B070BD19
:1018000041F21800C4F20200016802AD41F48051B7
:101810000160016801F4805101910199016841F072
:10182000040101600068294600F00400019001985D
:10183000A020029002200390032005902046FFF78D
:1018400037FA4020CDE90206204629460496FFF7E4
:101850002FFA06B070BD00002DE9F04182B00446B9
:1018600090F85100012818D160681D4617460E46B1
:10187000B0F5827F01D1A06898B1FFF721FB8046C7
:10188000002E4FF0010018BF002F02D102B0BDE8BA
:10189000F08194F85000012810D1022002B0BDE878
:1018A000F081042084F851002046314632463B4600
:1018B000009500F071F902B0BDE8F081012084F8D4
:1018C0005000042084F8510000206065A663A787BB
:1018D000E7872063A086E086A1682064B1F5004F09
:1018E000606408D12068016821F04001016001684E
:1018F00021F48041016020680168490603D4016831
:1019000041F040010160E168E08FD1B1E8B36E1CA5
:101910000AE000BFC068A16B21F8020BA163E08F51
:101920000138E087E08F80B320688168C907F1D172
:10193000FFF7C6FA002EF5D0A0EB0800A842F1D3BD
:1019400019E010B36E1C0AE0007BA16B0870A06B5D
:101950000130A063E08F0138E087E08FA8B12068F4
:101960008168C907F0D1FFF7ABFA002EF5D0A0EBE4
:101970000800A842F1D3012084F85100002084F827
:101980005000032002B0BDE8F0816068B0F5827FAE
:1019900011D1A068B0F5004F02D0B0F5806F0AD128
:1019A0002168B0F5806F0A6822F040020A6002D117
:1019B0002046012101E02046802100222B46CDF85F
:1019C000008000F06BFC28B1606D40F02000606585
:1019D00020206065012084F85100002084F8500028
:1019E000606D002818BF012002B0BDE8F081000042
:1019F0002DE9F04182B01D4616460F460446FFF71A
:101A00005FFA94F8511001290DD18046002F4FF054
:101A1000010018BF002E02D102B0BDE8F08194F899
:101A20005000012803D1022002B0BDE8F08101205E
:101A300084F85000032084F851000020606527637B
:101A4000A686E686A063A087E087A168C4E91000A7
:101A5000B1F5004F08D12068016821F04001016014
:101A6000016841F48041016020680168490603D49F
:101A7000016841F0400101606168731EE268B1FADB
:101A800081F1B3FA83F349095B09B2F5006F41EACA
:101A9000030124D131B137F8021BC1602763E08E06
:101AA0000138E086E08E002847D06E1C0AE000BFB7
:101AB000216B31F8022BC2602163E08E0138E08691
:101AC000E08ED0B3206881688907F1D4FFF7F8F978
:101AD000002EF5D0A0EB0800A842F1D323E039B1E5
:101AE00039780173206B01302063E08E0138E08685
:101AF000E08E10B36E1C0AE0216B09780173206B35
:101B000001302063E08E0138E086E08EA8B12068C5
:101B100081688907F0D4FFF7D3F9002EF5D0A0EB48
:101B20000800A842F1D3012084F85100002084F875
:101B30005000032002B0BDE8F081204602210122BE
:101B40002B46CDF8008000F0A9FB40B9204680214B
:101B500000222B46CDF8008000F0A0FB28B1606D7C
:101B600040F02000606520206065A06838B9002042
:101B700001902068C168019180680190019801205E
:101B800084F85100002084F85000606D002818BFD0
:101B9000012002B0BDE8F0812DE9F04383B01E467C
:101BA00015460F460446FFF78BF994F8511081460D
:101BB000012908D1002F4FF0010018BF002D0ED1D0
:101BC00003B0BDE8F0836068B0F5827F0DD10429D1
:101BD0004FF00200F4D1A1680029EBD0F0E7002E0D
:101BE000EED094F85000012803D1022003B0BDE8E4
:101BF000F083012084F8500094F85100002104285B
:101C00001CBF052084F851006165A563E687A6879F
:101C10002763E6862068A686216461640168490618
:101C200003D4016841F0400101606168731EE268FD
:101C3000B1FA81F1B3FA83F3DDF8288049095B0931
:101C4000B2F5006F41EA030137D131B137F8021B19
:101C5000C1602763E08E0138E086012608F10105A6
:101C6000E08E10B9E08F00286CD020688168890769
:101C70000CD5E18E51B1012E08D1216B002631F82F
:101C8000022BC2602163E18E0139E1868168C907B8
:101C90000AD0E18F41B1C068A16B012621F8020B87
:101CA000A163E08F0138E087FFF70AF9002DD7D054
:101CB000A0EB09004045D3D33AE039B1397801733C
:101CC000206B01302063E08E0138E086012608F1A8
:101CD000010500BFE08E08B9E08F98B320688168E5
:101CE00089070DD5E18E59B1012E09D1216B00264E
:101CF00009780173206B01302063E08E0138E086A3
:101D000020688168C9070BD0E18F49B1C068A16B19
:101D100001260870A06B0130A063E08F0138E087D6
:101D2000FFF7CEF8002DD5D0A0EB09004045D1D368
:101D3000012084F85100002084F85000032003B0F3
:101D4000BDE8F0832046022101224346CDF80090F1
:101D500000F0A4FA40B92046802100224346CDF885
:101D6000009000F09BFA60B1606D40F0200060656B
:101D700020206065002084F85000012003B0BDE8F9
:101D8000F083A06838B9002002902068C1680291F1
:101D9000806802900298012084F85100002084F8A5
:101DA0005000606D002818BF012003B0BDE8F0832B
:101DB000411E0020B0EB116F1CBF012070474EF296
:101DC0001002CEF2000251604EF62351CEF2000115
:101DD000F0230B700721906011607047FEE7000050
:101DE000B0B582B040F60004C4F2010420461021D0
:101DF0000022FFF75FF840F2A405B020C2F2000510
:101E00008DF806000DF10601284601220A23FFF78E
:101E1000EFFD0DF10701284601220A23FFF71CFD03
:101E20009DF80750204610210122FFF743F828466D
:101E300002B0B0BDB0B540F60000C4F20100102100
:101E40000122FFF737F840F2A4040A25C2F2000489
:101E50002046FFF76BFC01281CBF013D5FEA0561CE
:101E6000F6D10138B0FA80F04009B0BD2DE9F0415B
:101E700082B040F60008C4F2010815460F46044639
:101E80004046102100221E46FFF714F88DF8064048
:101E900040F2A404C2F200040DF106012046012222
:101EA0000A23FFF7A5FD2046394604220A23FFF73F
:101EB0009FFD0DF10701204601220A238DF80750EE
:101EC000FFF796FD204631462A460A23FFF790FD8C
:101ED000404610210122FEF7EDFF02B0BDE8F0817F
:101EE000F0B581B040F60007C4F2010714460D4674
:101EF0000646384610210022FEF7DCFF8DF803600D
:101F000040F2A406C2F200060DF1030130460122A0
:101F10000A23FFF76DFD3046294622460A23FFF7C4
:101F20009BFC384610210122FEF7C4FF01B0F0BD32
:101F3000B0B582B040F60004C4F20104204610217E
:101F40000022FEF7B7FF40F2A405A020C2F2000570
:101F50008DF806000DF10601284601220A23FFF73D
:101F600047FD0DF10701284601220A23FFF774FC03
:101F70009DF80750204610210122FEF79BFF2846BE
:101F800002B0B0BDB0B582B040F60005C4F20105A4
:101F90000446284610210022FEF78CFF40F2A400E0
:101FA000C2F200000DF1070101220A238DF807405B
:101FB000FFF71EFD284610210122FEF77BFF02B02D
:101FC000B0BD000010B582B040F60004C4F20104B8
:101FD000204610210022FEF76DFFC0208DF807007B
:101FE00040F2A400C2F200000DF1070101220A2311
:101FF000FFF7FEFC204610210122FEF75BFF02B036
:1020000010BD00002DE9F04F83B040F60004C4F28B
:102010000104204610210022FEF74CFF40F2A405E7
:102020000220C2F200058DF806000DF106012846D7
:1020300001220A230A27FFF7DBFC0F208DF8070097
:102040000DF10701284601220A23FFF7D1FC802069
:102050008DF8080002A9284601220A23FFF7C8FCD0
:10206000204610210122FEF725FF0DF109084FF04F
:102070000E0B0DF10A090DF10B0600BF20461021D1
:102080000022FEF717FF03208DF80900284641467D
:1020900001220A23FFF7ACFC2846494601220A2305
:1020A0008DF80AB0FFF7A4FC2846314601220A2326
:1020B000FFF7D2FB9DF80BA0204610210122FEF76E
:1020C000F9FE0AF0E00080281CBF013F5FEA0761CB
:1020D000D4D18038B0FA80F0400903B0BDE8F08F69
:1020E0002DE9F04F83B040F60004C4F2010420460D
:1020F000102100220026FEF7DDFE40F2A40502209A
:10210000C2F200058DF806000DF1060128460122F5
:102110000A230A27FFF76CFC0F208DF807000DF14A
:102120000701284601220A23FFF762FC02A928467C
:1021300001220A238DF80860FFF75AFC204610217F
:102140000122FEF7B7FE0DF109084FF00E0B0DF15D
:102150000A090DF10B0600BF204610210022FEF7F0
:10216000A9FE03208DF809002846414601220A23D2
:10217000FFF73EFC2846494601220A238DF80AB0A3
:10218000FFF736FC2846314601220A23FFF764FB9D
:102190009DF80BA0204610210122FEF78BFEBAF11C
:1021A000200F02D3013F3806D6D10020BAF1200F0C
:1021B00038BF012003B0BDE8F08F0000F0B581B05A
:1021C00040F60004C4F201040D46064620461021E4
:1021D0000022FEF76FFE40F2A4070220C2F20007C1
:1021E0008DF801000DF10101384601220A23FFF7A5
:1021F000FFFB0DF10201384601220A238DF802602F
:10220000FFF7F6FB0DF10301384601220A238DF892
:102210000350FFF7EDFB204610210122FEF74AFE96
:1022200001B0F0BD2DE9F04182B040F60008C4F2E3
:10223000010815460E460746404610210022FEF7CB
:1022400039FE40F2A4040220C2F200048DF8060018
:102250000DF10601204601220A23FFF7C9FB0DF10B
:102260000701204601220A238DF80770FFF7C0FB03
:10227000F01B0130C2B2204629460A23FFF7B8FB03
:10228000404610210122FEF715FE02B0BDE8F081A4
:10229000FEE70000FEE70000704700002DE9F04770
:1022A00082B00A9C984615460E468146FEF708FE07
:1022B000201A00EB0804FEF703FE40F20001C2F210
:1022C00000010968C1F3CB3161430191D9F80010D5
:1022D00089683140891BB1FA81F14909A94203D1CA
:1022E000002002B0BDE8F087824608F1010709E04E
:1022F000D9F8000080683040801BB0FA80F04009B7
:10230000A842EDD0002FF3D0FEF7DAFDA0EB0A00D3
:10231000A04207D201980199002808BF0446481E30
:102320000190E5E7D9E900014268B1F5827F22F02A
:10233000E00242600BD1D9F80810B1F5004F02D08D
:10234000B1F5806F03D1016821F040010160D9F837
:102350002810B1F5005F07D1016821F40051016038
:10236000016841F400510160012089F8510000200A
:1023700089F85000032002B0BDE8F08770470000E4
:10238000FEF7A4BD70B594B00AAC20462821FDF735
:1023900031FF01200A900E904FF4E01000254FF419
:1023A00080310226139020460995CDE90755CDE9E5
:1023B0000555CDE90355CDE90155CDE90B15CDE91D
:1023C0001161FFF717F820B1EFF3108072B600BF6C
:1023D000FEE70F20CDE905064FF48060CDE9080542
:1023E00005A802210795FEF717FF20B1EFF3108033
:1023F00072B600BFFEE7022001904FF40040039048
:1024000001A8FEF789FE20B1EFF3108072B600BF7D
:10241000FEE714B070BD000070470000FEE700004A
:1024200086B040F60004C4F20104FEF75DFDFFF73C
:10243000A9FF002541F21800CDE90455CDE9025568
:10244000C4F202000168002241F02001016001682D
:10245000102701F0200101910199016841F0040168
:1024600001600068102100F00400019001982046EE
:10247000FEF720FD02200126059002A920460297C2
:10248000CDE90365FEF714FC40F2A40004F52051E9
:10249000C2F200004FF482724FF4007380E826000D
:1024A0000A21C0E90355C0E90553C761C0E90855D1
:1024B000C0E90A51FFF73EF918B1EFF3108072B688
:1024C000FEE740F2740004F50051C2F200004FF440
:1024D00060220495CDE9025505730575C261C0E916
:1024E000001585600661FEF777F920B1EFF31080E3
:1024F00072B600BFFEE740F2740001254FF0070AF4
:10250000C2F2000002A9CDE90255CDF810A0FEF7F5
:10251000D7F820B1EFF3108072B600BFFEE7FFF7E7
:1025200051FDFDF73FFF40F27404C2F20004204663
:10253000FEF750F841F65830FEF7A6FB40F20019BE
:1025400040F2141B40F21C17C2F200090DF10808FA
:10255000C2F2000BC2F200074846FDF77DFF68B1EA
:10256000D9F8040040F21111884203D099F808000C
:10257000082803D141F65830FEF786FB002002A957
:1025800081E8210420464146FEF79AF8002843D10D
:102590002046FEF7C1FA20460521FEF7FBF920464A
:1025A000FEF716F906462046FEF728FBB0B200F00B
:1025B0003DF8CBF8000020464146CDE90255CDF864
:1025C00010A0FEF77DF860BB2046FEF7A5FA204676
:1025D0000521FEF7DFF92046FEF7FAF80646204609
:1025E000FEF70CFBB0B200F021F840F21811C2F275
:1025F0000001086040F215117960DBF80010082234
:10260000C7F80D0038463A72C7F80910FDF770FF99
:102610000520FEF739FB9FE7EFF3108072B600BF8D
:10262000FEE7EFF3108072B6FEE70000B0FA80F329
:1026300010FA03F2C3F19D030AD0D90501EB122071
:10264000530638BF704700F1010008BF20F00100B9
:1026500070470000000000000000010203040607AC
:10266000080900000000010203040102020304053E
:10267000060708090A0B0C0D0E0F1010A026000803
:10268000000000201000000050010008B0260008E3
:102690001000002028070000700100080000000062
:1026A00000127A000100000010000000000000008D
:04000005080000ED02
:00000001FF
